:020000040800F2
:10000000F8040020250500082D0500082F0500082C
:100010003105000833050008350500080000000020
:1000200000000000000000000000000009020008BD
:100030003905000800000000AD0200080D030008AB
:100040003F0500083F0500083F0500083F05000880
:100050003F0500083F050008F3110008B71100082C
:100060003F0500083F0500083F0500083F05000860
:100070003F0500083F0500083F0500083F05000850
:100080003F0500083F0500083F0500083F05000840
:100090003F0500083F0500083F0500083F05000830
:1000A0003F0500083F0500083F0500083F05000820
:1000B000B9050008990500083F0500083F0500083C
:1000C0003F0500083F0500083F0500083F05000800
:1000D0003F0500083F0500083F0500083F050008F0
:1000E0003F0500083F0500083F0500083F050008E0
:1000F0003F0500083F0500083F0500083F050008D0
:100100003F0500083F0500083F0500083F050008BF
:100110003F0500083F0500083F0500083F050008AF
:100120003F0500083F0500083F0500083F0500089F
:100130003F0500083F0500083F0500083F0500088F
:100140003F0500083F0500083F0500083F0500087F
:100150003F0500083F0500083F0500083F0500086F
:100160003F0500083F0500083F0500083F0500085F
:100170003F0500083F0500083F0500083F0500084F
:100180003F0500083F050008DFF814D003F0B4FE77
:100190000021024804F00CFAFEE70000A055000818
:1001A000F804002080F309887047684680F30988C6
:1001B00004480078C00714BF0220032080F314888D
:1001C0007047000068550008DFF818C0EFF305839A
:1001D0001B0618BF6047EFF31483DB0708BF6047B7
:1001E00000DF7047F9460008DFF818C0EFF3058319
:1001F0001B0618BF6047EFF31483DB0708BF604797
:1002000000DF704779490008EFF30980816911F830
:10021000021C002933D190E80F1010B5E047BDE86B
:100220001040EFF3098C8CE807001D4B93E80600A3
:10023000914208BF704781B11EF0100F06BF2CED30
:10024000108A0120002081F820002CE9F00FC1F86D
:1002500024C00CB404F05EFE0CBC1A60D2F824C0BA
:10026000BCE8F00F92F8200000281ABFBCEC108AFE
:100270006FF0120E6FF0020E8CF30988704710B504
:10028000084A1268914209D8074C54F8214090E876
:100290000F10A047EFF3098C8CE80F0010BD000091
:1002A000780000203C3F00083C3F000810B504F0F7
:1002B00009FDBDE81040174B93E80600914208BFC6
:1002C0007047EFF3098C1EF0100F06BF2CED108A5B
:1002D0000120002081F820002CE9F00FC1F824C093
:1002E0000CB404F017FE0CBC1A60D2F824C0BCE8B1
:1002F000F00F92F8200000281ABFBCEC108A6FF0B3
:10030000120E6FF0020E8CF30988704710B504F0DE
:10031000C7FECEE7780000200CB5002001900090C9
:100320007548006840F480307349086000BF724827
:10033000006800F4003000900198401C0190009883
:1003400018B90198B0F5A06FF1D16B48006810F4AE
:10035000003F02D00120009001E0002000900098B2
:10036000012845D164484030006840F0805062491F
:10037000403108606148006840F480405F4908608F
:100380005D48083000685C4908310860084600682C
:1003900040F4004008600846006840F4A05008603F
:1003A0005748091F0860081F006840F08070091F47
:1003B000086000BF5048006810F0007FFAD040F29B
:1003C0000560504908604C480830006820F0030080
:1003D0004949083108600846006840F0020008609A
:1003E00000BF45480830006800F00C000828F8D12C
:1003F0000CBD10B54448006840F4700042490860E4
:100400003D48006840F001003B49086000203A493F
:1004100008310860384800683C490840364908609F
:100420003B48091D0860081F006820F48020091F50
:100430000860002030490C310860FFF76DFF4FF075
:10044000006031498039086010BD70B5002000227D
:10045000022300240221284D08352D6805F00C00E8
:1004600020B1042806D0082834D107E0294D2A4EAF
:10047000356033E0294D284E35602FE01E4D2D1D8F
:100480002D68C5F380541C4D2D1D2D6805F03F01CE
:1004900054B1224DB5FBF1F5174E361D3668C6F343
:1004A000881605FB06F209E01A4DB5FBF1F5124E70
:1004B000361D3668C6F3881605FB06F20E4D2D1D57
:1004C0002D68C5F301456D1C6B00B2FBF3F5124EB0
:1004D000356003E00F4D104E356000BF00BF064D84
:1004E00008352D68C5F303150D4E705D0A4D2D6856
:1004F000C540094E356070BD0038024000700040B4
:1005000008544007003C024088ED00E0FFFFF6FE83
:10051000103000240024F4000000002000127A00B3
:10052000040000200648804706480047FEE7FEE733
:10053000FEE7FEE7FEE7FEE7FEE7FEE7FEE7FEE793
:10054000F30300088901000800BFFEE700BFFEE7D3
:1005500001F03CFA1FE001F049FA4FF47A7004F020
:100560001BF802211CA001F047FA4FF47A7004F046
:1005700013F8032119A001F03FFA4FF47A7004F048
:100580000BF801F050FA082115A001F035FA41F2FC
:10059000883004F001F8DEE710B50121134803F0BC
:1005A0001AF940B10121114803F026F90121104840
:1005B000006804F053F810BD10B50121880703F05E
:1005C0000AF940B10121880703F016F90221094810
:1005D000006804F043F810BD7550000020697300F6
:1005E000617765736F6D65210000000000040040B5
:1005F0002C000020280000202DE9F0412DED048B77
:1006000007460D4614469FED260BB0EE408AF0EEED
:10061000608A384603F065FB41EC100B6068401EB1
:1006200005EBC00080ED000B012615E0701E05EB08
:10063000C00090ED001BB0EE410AF0EE610A53ECF1
:10064000102B51EC180B03F0C4F941EC100BB0EE79
:10065000408AF0EE608A761C2068B042E6DA2068B4
:1006600003F03FFB41EC100BB0EE409AF0EE609AC5
:1006700053EC192B51EC180B03F0C4FA41EC100B9E
:1006800084ED020B6068401C6060D4E90001401CEE
:10069000814201D101206060BDEC048BBDE8F08196
:1006A0000000000000000000002100E0491C814221
:1006B000FCD3704770B50024002513E06019B0F535
:1006C000FA6F02DA6019002800DC6D422C44F94808
:1006D0000460001D0460001D0460001D04606420AF
:1006E00003F05AFFF448006818B1F4480068002885
:1006F000E4D170BD2DED108BD6B09FEDF10B8DEDDB
:10070000500B9FEDF10B8DED4E0B9FEDF10B8DED31
:100710004C0B502138A803F051F9502124A803F0C4
:100720004DF9502110A803F049F9EB4BD3E9002112
:10073000D3E90203CDE90E03CDE90C21E64B1033DA
:100740000FCBCDE90A23CDE90801E34B2033D3E9F0
:100750000020D3E90213CDE90613CDE9042020E1FE
:100760004FF0FF31012003F093FF01AB07C352A804
:1007700000F013FF0CAA38A95298FFF73DFF08AA12
:1007800024A95398FFF738FF04AA10A95498FFF73B
:1007900033FF9DED0E1BB0EE410AF0EE610A9FEDB6
:1007A000CF1B53EC112B51EC100B03F0B9F941ECBA
:1007B000100BB0EE40BAF0EE60BA9DED500B53EC6A
:1007C000102B51EC1B0B03F0A5F941EC190B9DED1F
:1007D0000A1BB0EE410AF0EE610A9FEDC01B53EC1C
:1007E000112B51EC100B03F09BF941EC100BB0EE08
:1007F00040BAF0EE60BA9DED4E0B53EC102B51EC6D
:100800001B0B03F087F941EC1A0B9DED061BB0EEB4
:10081000410AF0EE610A9FEDB11B53EC112B51EC34
:10082000100B03F07DF941EC100BB0EE40BAF0EE86
:1008300060BA9DED4C0B53EC102B51EC1B0B03F0ED
:1008400069F941EC180B53EC182B51EC180B03F021
:1008500067F941EC100B8DED020B53EC1A2B51ECA8
:100860001A0B03F05DF941EC100B8DED000B9DEDC3
:10087000020B53EC102B9DED000B51EC100B03F011
:10088000A8F841EC100BB0EE40FAF0EE60FA03F07D
:10089000E3FCB0EE40EAF0EE60EA53EC1E2B51ECC4
:1008A000190B03F0AFF941EC100BB0EE40DAF0EEAB
:1008B00060DA03F05DFBB0EE40CAF0EE60CA9FED77
:1008C000890B53EC102B51EC1C0B03F029F941EC74
:1008D000100BB0EE40BAF0EE60BA9FED840B53EC13
:1008E000102B51EC1B0B03F08DF941EC100B8148E0
:1008F00080ED000B53EC182B51EC180B03F010F9A2
:1009000041EC100B8DED020B53EC192B51EC190B34
:1009100003F006F941EC100B8DED000B9DED020B81
:1009200053EC102B9DED000B51EC100B03F051F824
:1009300041EC100BB0EE40FAF0EE60FA03F08CFCE4
:10094000B0EE40EAF0EE60EA53EC1E2B51EC1A0BCD
:1009500003F058F941EC100BB0EE40DAF0EE60DA3B
:1009600003F006FBB0EE40CAF0EE60CA9FED5D0BEF
:1009700053EC102B51EC1C0B03F0D2F841EC100B94
:10098000B0EE40BAF0EE60BA9FED580B53EC102B6E
:1009900051EC1B0B03F036F941EC100B564880ED7F
:1009A000000BDDE670B54FF470405449088064E2F6
:1009B0009FED530B53EC102B4E4890ED000B51EC78
:1009C000100B03F0B3F90DD89FED4F0B53EC102B28
:1009D000484890ED000B51EC100B03F093F901D255
:1009E00001254CE09FED480B53EC102B414890ED56
:1009F000000B51EC100B03F099F90DD89FED440B4F
:100A000053EC102B3B4890ED000B51EC100B03F016
:100A100079F901D2022532E09FED3D0B53EC102B0A
:100A2000344890ED000B51EC100B03F07FF90DD81A
:100A30009FED390B53EC102B2E4890ED000B51EC31
:100A4000100B03F05FF901D2032518E09FED320B84
:100A500053EC102B274890ED000B51EC100B03F0DA
:100A600065F90CD89FED2E0B53EC102B214890ED1F
:100A7000000B51EC100B03F045F900D204259FED5B
:100A8000200B53EC102B1C4890ED000B51EC100B7D
:100A900003F04CF948D89FED1C0B53EC102B164873
:100AA00090ED000B51EC100B03F02CF93CD201241B
:100AB00087E00000340800403C000020380000209F
:100AC000F2B0506B9A778C3F705F07CE19519ABF86
:100AD000FCA9F1D24D62A0BFB0550008FCA9F1D22B
:100AE0004D62503F00000000008066406F1283C0DE
:100AF000CA21094048000020500000201A0C024082
:100B000000000000008056C000000000008046C0C9
:100B100000000000000000000000000000804640CF
:100B200000000000008056401FED090B53EC102B15
:100B3000FE4890ED000B51EC100B03F0F7F80DD8C8
:100B40001FED0D0B53EC102BF84890ED000B51EC02
:100B5000100B03F0D7F801D2022432E01FED140B82
:100B600053EC102BF14890ED000B51EC100B03F0FF
:100B7000DDF80DD81FED180B53EC102BEB4890ED62
:100B8000000B51EC100B03F0BDF801D2032418E068
:100B90001FED1F0B53EC102BE44890ED000B51ECB4
:100BA000100B03F0C3F80CD81FED230B53EC102BE4
:100BB000DE4890ED000B51EC100B03F0A3F800D2CF
:100BC0000424012D54D1012C06D0022C17D0032C63
:100BD00028D0042C4AD138E04FF48051D44801F099
:100BE00058FB4FF4FA7003F0D7FC4FF48051D04813
:100BF00001F04FFB4FF4FA7003F0CEFC37E04FF4F6
:100C00008051CB4801F045FB4FF4C87003F0C4FCA1
:100C10004FF48051C64801F03CFB4FF4C87003F01C
:100C2000BBFC24E04FF48051C14801F032FB4FF48B
:100C3000967003F0B1FC4FF48051BD4801F029FBE0
:100C40004FF4967003F0A8FC11E04FF48051B848BF
:100C500001F01FFBC82003F09FFC4FF48051B44803
:100C600001F017FBC82003F097FC00E000BF00BFB5
:100C7000022D54D1012C06D0022C17D0032C28D0E1
:100C8000042C4AD138E04FF40051A94801F001FB8F
:100C90004FF4FA7003F080FC4FF40051A44801F0C7
:100CA000F8FA4FF4FA7003F077FC37E04FF4005194
:100CB0009F4801F0EEFA4FF4C87003F06DFC4FF45A
:100CC00000519B4801F0E5FA4FF4C87003F064FC52
:100CD00024E04FF40051964801F0DBFA4FF496708F
:100CE00003F05AFC4FF40051914801F0D2FA4FF44E
:100CF000967003F051FC11E04FF400518C4801F064
:100D0000C8FAC82003F048FC4FF40051884801F0AD
:100D1000C0FAC82003F040FC00E000BF00BF032D74
:100D200054D1012C06D0022C17D0032C28D0042C2F
:100D30004AD138E04FF480417D4801F0AAFA4FF4DF
:100D4000FA7003F029FC4FF48041794801F0A1FAD0
:100D50004FF4FA7003F020FC37E04FF48041744800
:100D600001F097FA4FF4C87003F016FC4FF480417D
:100D70006F4801F08EFA4FF4C87003F00DFC24E0C8
:100D80004FF480416A4801F084FA4FF4967003F002
:100D900003FC4FF48041664801F07BFA4FF49670F3
:100DA00003F0FAFB11E04FF48041614801F071FA61
:100DB000C82003F0F1FB4FF480415D4801F069FA6F
:100DC000C82003F0E9FB00E000BF00BF042D54D1B0
:100DD000012C06D0022C17D0032C28D0042C4AD189
:100DE00038E04FF40041524801F053FA4FF4FA70E2
:100DF00003F0D2FB4FF400414D4801F04AFA4FF4A2
:100E0000FA7003F0C9FB37E04FF40041484801F0A5
:100E100040FA4FF4C87003F0BFFB4FF40041444860
:100E200001F037FA4FF4C87003F0B6FB24E04FF43A
:100E300000413F4801F02DFA4FF4967003F0ACFBEF
:100E40004FF400413A4801F024FA4FF4967003F051
:100E5000A3FB11E04FF40041354801F01AFAC82015
:100E600003F09AFB4FF40041314801F012FAC82018
:100E700003F092FB00E000BF00BF2E48006820B1E5
:100E80002D48006800283FF493AD70BD2DED068B12
:100E90009CB02A4B0FCBCDE91A23CDE91801502184
:100EA00004A802F08BFD7EE04FF0FF31022003F03A
:100EB000EFFB01AB07C3224800F022FF00BF022175
:100EC0001F4801F03FF80028F9D01D4800F054FFFA
:100ED000044618AA04A92046FFF78EFB9DED1A1BB5
:100EE000B0EE410AF0EE610A9FED161B53EC112B98
:100EF00051EC100B02F086FE41EC100BB0EE409A64
:100F0000F0EE609A9FED110B53EC102B51EC190B86
:100F100002F006FE41EC180B9FED0E0B53EC102B6C
:100F200051EC180B02F0F6FD18E000005000002014
:100F3000000C02403C00002038000020E055000872
:100F4000002001400000000000FEAF400000000053
:100F50000000084052B81E85EB51E83F41EC100BF1
:100F6000B0EE40AAF0EE60AA9FEDAC0B53EC102B54
:100F700051EC1A0B02F046FE41EC100BB0EE409A19
:100F8000F0EE609A9FEDA70B53EC102B51EC190B70
:100F900002F01FFD41EC100BA44880ED000B022174
:100FA000A34800F0D8FF7FE710B52DED048B9FED2F
:100FB000A10BB0EE409AF0EE609A4FF470409F495A
:100FC0000880AFE053EC192B984890ED000B51ECE2
:100FD000100B02F09FFD41EC180B9FED990B53ECA9
:100FE000102B51EC180B02F0A1FE49D84FF48051A0
:100FF00092481A3801F028F9012806D14FF44051DF
:101000008E481A3801F045F932E04FF400518B4810
:101010001A3801F019F9012806D14FF4C041874868
:101020001A3801F036F923E04FF4804183481A382A
:1010300001F00AF9012806D14FF440417F481A38DF
:1010400001F027F914E04FF400417C481A3801F010
:10105000FBF8012806D14FF4104178481A3801F006
:1010600018F905E04FF4805174481A3801F011F96D
:101070006E4890ED000BB0EE409AF0EE609A51E0B1
:101080009FED710B53EC102B51EC180B02F03AFE54
:1010900048D84FF4805169481A3801F0D5F8012832
:1010A00006D14FF4104165481A3801F0F2F832E0E9
:1010B0004FF4005161481A3801F0C6F8012806D1F2
:1010C0004FF440515D481A3801F0E3F823E04FF443
:1010D00080415A481A3801F0B7F8012806D14FF478
:1010E000C04156481A3801F0D4F814E04FF40041DA
:1010F00052481A3801F0A8F8012806D14FF44041AF
:101100004E481A3801F0C5F805E04FF480514B48BD
:101110001A3801F0BEF8454890ED000BB0EE409A49
:10112000F0EE609A4A48006820B94A4800680028F2
:101130003FF448AFBDEC048B10BD10B54FF47040C8
:101140003E49088013E04FF470413C481A3801F0E2
:10115000A0F84FF4FA7003F01FFA4FF470413748CB
:101160001A3801F096F84FF4FA7003F015FA38487F
:10117000006818B9374800680028E4D110BD19E0AC
:101180003348006850B900F049FA3248006810B995
:10119000FFF70AFF0EE0FFF7D0FF0BE02D480068D5
:1011A00020B900F03BFAFFF7FDFB03E000F0EBFA9B
:1011B000FFF780FAE4E710B5022000F04CFFB8B169
:1011C000022000F068FF2248006808B9012000E012
:1011D00000201F4908602048006910F0010F07D067
:1011E0000846006808B9012000E00020184908609E
:1011F00010BD10B5012000F02EFF68B1012000F0F5
:101200004AFF1448006808B9012000E00020114995
:10121000086000200E49086010BD00007B14AE4736
:10122000E17A643F000000000000394058000020CF
:10123000002001400000000000003E401A0C024067
:10124000000000000000004000000000000000C09E
:101250003C000020380000200000024000BFFEE7F4
:1012600010B504464FF48050E849086007E0E749AC
:101270000868411EE54A116008B9FFF7EFFF022137
:10128000E34801F0C2FC0028F1D02146E04801F01B
:1012900085FC4FF48050DD49086007E0DB490868B1
:1012A000411EDA4A116008B9FFF7D8FF0121D8487A
:1012B00001F0ABFC0028F1D0D54801F06CFCC0B2C5
:1012C00010BD70B505460E461446012C01DD46F0F2
:1012D00040060821CF4800F0D3FF3046FFF7C0FF9B
:1012E00005E02878FFF7BCFF601E84B26D1C012C5E
:1012F000F7DA0821C74800F0C1FF70BD00B587B01C
:101300000121080301F0C8F90121084601F080F924
:101310000121102001F07CF90121102001F078F961
:101320000121102001F074F905221146BA4800F09D
:10133000B4FF05220621B84800F0AFFF05220721BF
:10134000B54800F0AAFF02208DF8180000208DF8A3
:101350001A0002208DF81B008DF81900202005903E
:1013600005A9AD4800F00EFF8020059005A9AA4808
:1013700000F008FF4020059005A9A74800F002FFF3
:10138000A34801F083FA0020ADF80000ADF8040096
:10139000ADF80600ADF808004FF40070ADF80A0093
:1013A0000820ADF80C000020ADF80E000720ADF8C5
:1013B00010004FF48270ADF802006946944801F0C5
:1013C0008BFA0121924801F068FB0820059001206A
:1013D0008DF8180000208DF81A0002208DF81900F1
:1013E00005A98C4800F0CEFE08218A4800F046FF8F
:1013F0000120059000208DF818008DF81A000220B9
:101400008DF8190000208DF81B0005A9814800F017
:10141000B9FE0220059005A97E4800F0B3FE07B092
:1014200000BD38B5044600200090FFF767FF6078E4
:1014300021780843E178084321790843A1780843DB
:101440000090012220216846FFF73BFF38BD70B5B0
:1014500006460C461546012D02DD44F0C00401E0AD
:1014600044F0800408216B4800F00AFF2046FFF793
:10147000F7FE06E00020FFF7F3FE3070681E85B22D
:10148000761C002DF6DC0821624800F0F7FE70BDE6
:1014900038B5044600200090012221216846FFF75C
:1014A000D6FF9DF8000000F0D00000902078617811
:1014B0000843A17808439DF80010084300900122DA
:1014C00021216846FFF7FDFE38BD38B504460020EF
:1014D0000090012238216846FFF7B9FF2078617833
:1014E0000843A17808430090012238216846FFF79D
:1014F000E8FE38BD38B50446012220216846FFF7D2
:10150000A6FF9DF8000000F0BF0000909DF80000CD
:1015100020430090012220216846FFF7D2FE38BD0B
:1015200038B50446012220216846FFF790FF9DF858
:10153000000000F07F0000909DF800002043009024
:10154000012220216846FFF7BCFE38BD38B50446AD
:10155000012220216846FFF77AFF9DF8000000F085
:10156000DF0000909DF80000204300900122202120
:101570006846FFF7A6FE38BD08B50122212168465E
:10158000FFF765FF9DF8000040F040000090012249
:1015900021216846FFF795FE08BD3EB505460024AB
:1015A000012220216846FFF752FF0622292101A8C7
:1015B000FFF74DFF9DF8000010F0200002D020281A
:1015C00020D10FE000240AE001A911F8140040B274
:1015D00000EBC000400028602D1D601CC4B2032C2D
:1015E000F2DB10E000240AE001A911F8140040B277
:1015F00000EBC000C00028602D1D601CC4B2032C8D
:10160000F2DB00E000BF00BF3EBD00006000002034
:101610000030014000100240000002401CB50121D2
:10162000082000F0F5FF4FF47040009001208DF885
:10163000040002208DF8050000208DF806008DF8CA
:10164000070069461C4800F09DFD1CBD00B585B033
:101650000121084600F0DCFF0121880301F01CF89D
:1016600000208DF810008DF813000120039003A9CD
:10167000124800F087FD0021084601F00FFB012011
:10168000019000208DF8080008208DF80900012045
:101690008DF80A0001A800F087FC06208DF80000F4
:1016A00001208DF801008DF802008DF803006846D6
:1016B00000F0C7F905B000BD000C02400000024078
:1016C00000B589B01D208DF8200000208DF8210084
:1016D00001208DF822008DF8230008A800F0B1F950
:1016E0000121022000F0C7FF6420069059480068DD
:1016F00041F28831B0FBF1F080B2ADF81400002067
:10170000ADF81C00ADF8160005A9534801F0ABFB7D
:1017100001221146504802F047F801214E4801F0DD
:101720002BFC1C208DF8100000208DF811000120EA
:101730008DF812008DF8130004A800F082F9012141
:10174000084600F098FF64200290424800684FF479
:101750007A61B0FBF1F080B2ADF804000020ADF882
:101760000C00ADF8060001A94FF0804001F07BFBB2
:1017700001221146900702F017F80121880701F0B5
:10178000FBFB09B000BD00B58BB00121082000F0C3
:101790003FFF0121042000F06EFF09A800F03AFD90
:1017A00002220C212D4800F078FD02220D212B4849
:1017B00000F073FD02220E21284800F06EFD022287
:1017C0000F21264800F069FD4FF470400990022077
:1017D0008DF8280000208DF82A0003208DF82900BC
:1017E00000208DF82B0009A91C4800F0CBFC06A8AE
:1017F00001F06DFB4FF40070ADF820004FF47A70EB
:101800000790F020ADF8180006A9154801F02BFB51
:1018100001A801F0E1FC0120ADF806006020ADF860
:1018200004004FF4FA70039001A90D4801F0B0FBD9
:1018300001A90B4801F0E5FB01A9094801F02EFCC4
:1018400001A9074801F090FC0121054801F094FB33
:101850000BB000BD0000002000040040000C02405E
:10186000000800401CB50121102000F0D1FE01212C
:10187000022000F0CDFE01208DF8040000208DF83C
:10188000060002208DF80500C001009069466848F6
:1018900000F078FC012000906946664800F072FC78
:1018A0000121644800F0ECFC4FF4007000906946A0
:1018B0005F4800F067FC0420009069465D4800F036
:1018C00061FC0220009069465A4800F05BFC102041
:1018D00000906946574800F055FC08200090694682
:1018E000544800F04FFC402000906946514800F0F9
:1018F00049FC2020009069464E4800F043FC8020BF
:10190000009069464A4800F03DFC1CBD10B50446F5
:10191000012002F041FE0CB1012000E0002002464F
:101920004FF48071424800F0ADFC012002F034FE1B
:101930000121404800F0A2FC012002F02DFE01210F
:101940003C4800F09DFC012002F026FE10BD70B561
:1019500004460D4604F001024FF40071344800F0D3
:1019600091FC641004F001020421324800F08AFC6A
:10197000641004F0010202212E4800F083FC641080
:1019800004F0010210212B4800F07CFC641004F0EC
:1019900001020821274800F075FC641004F00102E0
:1019A0004021244800F06EFC641004F00102202164
:1019B000204800F067FC641004F0010280211C48FC
:1019C00000F060FC2846FFF7A1FF70BD10B5FFF7DF
:1019D00049FF00213020FFF7BAFF00213820FFF730
:1019E000B6FF00210C20FFF7B2FF10BD10B500219B
:1019F0000120FFF7ACFF10BD70B504460D46002670
:101A000006E020780121FFF7A2FF641C701CC6B21B
:101A1000AE42F6DB70BD10B5044644F080000021F4
:101A2000FFF795FF10BD10B52820FFF7F4FF10BD9C
:101A3000000402400010024033490143334A116060
:101A4000704770B5002100230F22C47824B32F4CB7
:101A5000246804F4E064C4F5E064C4F30721C1F130
:101A60000404E3B20A4144789C40E1B28478144013
:101A700021430C07210E264C05786155047804F0AB
:101A80001F050124AC4005786D114FF0E02606EBF0
:101A90008505C5F8004109E0047804F01F0401251C
:101AA000A5401C4C0678761144F8265070BD1A4AA1
:101AB0000A400243154B1B1F1A60704739B1134A85
:101AC000121D12680243114B1B1D1A6006E00F4ADB
:101AD000121D126882430D4B1B1D1A6070470428AB
:101AE00008D14FF0E021096941F004014FF0E022F4
:101AF000116107E04FF0E021096921F004014FF086
:101B0000E0221161704700000000FA050CED00E0D2
:101B100000E400E080E100E080FFFF1F10B501213C
:101B2000080200F021FE00214FF4807000F01CFE3E
:101B300010BD30B50246002000235068F84C20400C
:101B40000D790C6844EA0524204350609068F54CF8
:101B50002040D1E903542C438D682C434D7944EA4D
:101B6000450420439060D06A20F470000C7D641E10
:101B7000E4B2234340EA0350D06230BD002101604B
:101B8000017141718160C16001610121017570477E
:101B90000021E54A1168E54A01EA0201D0E9002383
:101BA00042EA0302836842EA0302C36842EA03028C
:101BB00042EA0101DE4AC2F80413704700210160C5
:101BC00041608160C160704721B1826842F00102CA
:101BD000826003E0826822F00102826070470A4658
:101BE00000214168D34B1940114341607047416265
:101BF000826270470A460021416821F01F011143AB
:101C00004160704738B1C849096841F40001C84AC9
:101C1000C2F8041306E0C449096821F40001C44A6B
:101C2000C2F80413704738B1BF49096841F4800114
:101C3000BF4AC2F8041306E0BB49096821F48001D9
:101C4000BB4AC2F804137047F0B504460D460020A5
:101C50000021092D11DDE068A5F10A0606EB460713
:101C6000072606FA07F18843A5F10A0606EB4606A1
:101C700003FA06F10843E0600CE0206905EB450734
:101C8000072606FA07F1884305EB450603FA06F135
:101C900008432061072A0FDA606B561E06EB8607A1
:101CA0001F2606FA07F18843561E06EB860605FA3C
:101CB00006F10843606322E00D2A0FDA206BD61F7D
:101CC00006EB86071F2606FA07F18843D61F06EBA8
:101CD000860605FA06F10843206310E0E06AA2F1E7
:101CE0000D0606EB86071F2606FA07F18843A2F1C8
:101CF0000D0606EB860605FA06F10843E062F0BD24
:101D0000816841F0804181607047014600208A6807
:101D100012F4800F01D0012000E00020704721B1B3
:101D2000826842F48062826003E0826822F480620A
:101D30008260704721B1826842F00202826003E053
:101D4000826822F002028260704710B50A460021C4
:101D50000023416821F46041531E41EA4331416050
:101D600010BD21B1426842F40062426003E0426863
:101D700022F40062426070470146C86C80B270472E
:101D80006D480068704721B1826842F480728260B9
:101D900003E0826822F480728260704721B1826819
:101DA00042F40072826003E0826822F40072826072
:101DB000704738B15C49096841F400515C4AC2F887
:101DC000041306E05849096821F40051584AC2F842
:101DD00004137047F0B50446154600200022002683
:101DE000092911DDE068A1F10A0707EB470C072775
:101DF00007FA0CF29043A1F10A0707EB470703FA31
:101E000007F21043E0600CE0206901EB410C07276A
:101E100007FA0CF2904301EB410703FA07F2104373
:101E20002061A06BC0F30156EF1C06F1010CA7EB7B
:101E30000C0707EB870C1F2707FA0CF29043EF1CE7
:101E400006F1010CA7EB0C0707EB870701FA07F275
:101E50001043A063F0BD10B50A4600210023816B3A
:101E600021F44011531E41EA0351816310BD08B5AE
:101E7000002300930090009B0B440093009B1A608A
:101E800008BD0A460021816821F470211143816058
:101E900070470A460021816821F440111143816096
:101EA0007047816841F480018160704701460020DD
:101EB0008A6812F4800F01D0012000E000207047F2
:101EC00021B1426842F48062426003E0426822F439
:101ED00080624260704721B1426842F480524260A1
:101EE00003E0426822F480524260704708B502461F
:101EF00000200090009201F12800009B18440090FF
:101F00000098006880B208BD10B50B460021D9B218
:101F1000012404FA01F18AB144680C43446010E0E2
:101F2000FFFEFFFCFDF7FFC004230140E030FCFF93
:101F300000200140FFFD3FFF0823014044688C431F
:101F4000446010BD0246002013680B4201D00120FE
:101F500000E000207047CA430260704770B5024637
:101F60000020002300240B12556801268E4005EA4C
:101F7000060415681D4202D00CB1012000E00020CB
:101F800070BD00220A12D343036070470020444909
:101F90000860091D0860091D0860091D08604148A6
:101FA0003F4914310860704700213D498279002A79
:101FB0003AD00A46126803689A430B461A600A1D13
:101FC000126803689A430B1D1A60027911440A686B
:101FD00003681A430A60324A0832126803689A4357
:101FE0002F4B08331A601A1D126803689A432C4B52
:101FF0000C331A604279102A0ED11A1F1268036836
:102000001A43274B08331A601A1D126803681A43D3
:10201000234B0C331A600DE02149427911440A68C0
:1020200003681A430A6005E0027911440A680368EC
:102030009A430A6070470021016001710C214171CF
:102040000021817170471649103109680143144A13
:1020500010321160704701460020114A1432126894
:102060000A4201D0012000E0002070470C491431E1
:1020700008607047014600200022094B1B6803EAF4
:102080000102074B14331B680B4202D00AB1012036
:1020900000E00020704702491431086070470000DA
:1020A000003C0140FFFF7F0010B504468C4884428D
:1020B00008D10121084600F000FB0021012000F0BA
:1020C000FCFA5EE08748844208D10121022000F03A
:1020D000F4FA0021022000F0F0FA52E08248844233
:1020E00008D10121042000F0E8FA0021042000F0CA
:1020F000E4FA46E07D48844208D10121082000F03E
:10210000DCFA0021082000F0D8FA3AE0784884424E
:1021100008D10121102000F0D0FA0021102000F099
:10212000CCFA2EE07348844208D10121202000F02F
:10213000C4FA0021202000F0C0FA22E06E48844258
:1021400008D10121402000F0B8FA0021402000F021
:10215000B4FA16E06948844208D10121802000F0D9
:10216000ACFA0021802000F0A8FA0AE0644884421A
:1021700007D10121801500F0A0FA0021A01500F080
:102180009CFA10BDF0B50A4600210023002400BFD0
:102190003DE0012505FA01F3156805EA03049C42B8
:1021A00034D105684F000326BE40B543056015795C
:1021B0004E00B5400668354305601579012D02D003
:1021C0001579022D16D185684F000326BE40B54310
:1021D000856055794E00B540866835438560456811
:1021E00001268E40B5434560456896798E40B6B26B
:1021F00035434560C5684F000326BE40B543C56002
:10220000D5794E00B540C6683543C560491C1029D4
:10221000BFD3F0BD4FF6FF71016000210171417124
:102220008171C171704708B54FF480320092009AF5
:102230000A430092009AC261C161009AC261C269F8
:102240000092C269009208BD0246002013690B4249
:1022500001D0012000E0002070470146086980B2EB
:1022600070470246002053690B4201D0012000E074
:10227000002070470146486980B27047018370476B
:10228000418370470AB1018300E041837047416197
:10229000704742694A4042617047F0B5002300240C
:1022A0004D07ED0E02FA05F3CE1000F1200555F8AA
:1022B00026504E07F70E0F26BE40B543CF1000F153
:1022C000200646F82750CE1000F1200555F826507C
:1022D00045EA0304CE1000F1200545F82640F0BD84
:1022E000000002400004024000080240000C0240CE
:1022F000001002400014024000180240001C02407E
:1023000000200240FA48006840F00100F8490860E7
:102310000020F74908310860F5480068F549084091
:10232000F3490860F448091D0860081F006820F49C
:102330008020091F08600020ED490C3108607047BB
:102340000021EB4A921C117011460870704710B5BD
:1023500001460022002300204A11012A02D1E44C48
:10236000236808E0022A03D1E14C7034236802E0BC
:10237000DF4C7434236801F01F02012494401C4296
:1023800001D0012000E0002010BD38B500200090F1
:102390000024002500BF3120FFF7D9FF0546009833
:1023A000401C00900098B0F5A06F01D0002DF2D035
:1023B0003120FFF7CCFF08B1012400E000242046C3
:1023C00038BD01460020CA4A106820F0F80040EAF3
:1023D000C10010607047C949086070470021C44AB5
:1023E000703211701170012802D004280AD104E063
:1023F0000121BF4A7032117005E00521BC4A7032DC
:10240000117000E000BF00BF7047BD490860704711
:1024100070B5049C41EA82150126C6EB530645EAD5
:102420000645054345EA0465B14E361D356070BD6D
:10243000B24908667047820142EA0172AC4B8433AC
:102440001A607047AD4988667047AC49C8647047E8
:1024500002460020A64B0833186820F0EC6042EAE0
:1024600001031843A24B083318607047024600204E
:102470009F4B0833186820F0784042EA0103184364
:102480009B4B08331860704701460020984A083279
:10249000106820F00300084310607047944808302B
:1024A000006800F00C00704701460020904A083296
:1024B000106820F0F00008431060704701460020CB
:1024C0008B4A0832106820F4E050084310607047CF
:1024D00001460020864A0832106820F4604040EA35
:1024E000C10010607047F0B50021002200240225D1
:1024F000002602237E4F08373F6807F00C0121B108
:10250000042905D0082937D105E07E4F076036E061
:102510007D4F076033E0764F3F1D3F68C7F380561D
:10252000734F3F1D3F6807F03F036EB1764FB7FB17
:10253000F3F7DFF8BCC10CF1040CDCF800C0CCF3FD
:10254000881C07FB0CF40CE06E4FB7FBF3F7DFF8C9
:10255000A0C10CF1040CDCF800C0CCF3881C07FB14
:102560000CF4634F3F1D3F68C7F301477F1C7D009C
:10257000B4FBF5F7076002E0624F076000BF00BFE1
:102580005B4F08373F6807F0F00109095F4F7A5C3D
:102590000768D7404760564F08373F6807F4E05157
:1025A000890A5A4F7A5C4768D7408760504F08378E
:1025B0003F6807F46041490B544F7A5C4768D74045
:1025C000C760F0BD002100F44072B2F5407F0AD12F
:1025D000474A0832116821F4F8114D4A024011436C
:1025E000434A08321160424A70321268C0F30B034A
:1025F0001A433F4B70331A607047414944390860B1
:1026000070473F4940390860704742490860704749
:1026100039B1374A303212680243354B30331A60D1
:1026200006E0334A303212688243314B30331A604D
:10263000704739B12E4A3432126802432C4B34337E
:102640001A6006E02A4A343212688243284B343337
:102650001A60704739B1264A383212680243244B57
:1026600038331A6006E0224A383212688243204B1F
:1026700038331A60704739B11D4A4032126802433C
:102680001B4B40331A6006E0194A403212688243FD
:10269000174B40331A60704739B1154A44321268FB
:1026A0000243134B44331A6006E0114A4432126865
:1026B00082430F4B44331A60704739B10C4A1032D1
:1026C000126802430A4B10331A6006E0084A1032BF
:1026D00012688243064B10331A607047E1B1044A16
:1026E000143212680243024B14331A6019E00000DE
:1026F00000380240FFFFF6FE103000240000474281
:10270000800E47420024F40000127A00640000208A
:10271000FFFCFF0F5C0147425B4A126882435A4B41
:102720001A60704739B1584A121D12680243564B5D
:102730001B1D1A6006E0544A121D12688243524B58
:102740001B1D1A60704739B14F4A0C3212680243A0
:102750004D4B0C331A6006E04B4A0C321268824330
:10276000494B0C331A60704739B1474A103212682E
:102770000243454B10331A6006E0434A1032126898
:102780008243414B10331A60704739B13E4A3C32A4
:10279000126802433C4B3C331A6006E03A4A3C3232
:1027A00012688243384B3C331A60704739B1364A5D
:1027B000403212680243344B40331A6006E0324A1A
:1027C000403212688243304B40331A60704739B14F
:1027D0002D4A4432126802432B4B44331A6006E000
:1027E000294A443212688243274B44331A607047A7
:1027F00039B1254A4C3212680243234B4C331A60DC
:1028000006E0214A4C32126882431F4B4C331A6057
:10281000704739B11C4A5032126802431A4B503388
:102820001A6006E0184A503212688243164B503341
:102830001A60704739B1144AD21F12780243124B02
:10284000DB1F1A7006E0104AD21F127882430E4B2B
:10285000DB1F1A7070470C486030006840F08070D1
:10286000094960310860704701460020064A083A6D
:1028700012680A4201D0012000E00020704702499E
:10288000891F0870704700001438024010B50446D4
:10289000F648844208D101218014FFF765FF00212A
:1028A000A014FFF761FF16E0F148844208D101212E
:1028B0000014FFF748FF00212014FFF744FF0AE04F
:1028C000EC48844207D10121C013FFF73CFF0021EF
:1028D000E013FFF738FF10BD10B50022028802F4A4
:1028E00041520B884C8823438C882343CC88234354
:1028F0000C8923434C8923438C892343CC8923436C
:102900001A430280838B4FF2FF74234083830B8A28
:10291000038210BD2DE9F04F00250223002401277A
:1029200000220026944690469146B0F81CA04FF233
:10293000400B0AEA0B0AA0F81CA04FF0020AA0F80C
:1029400020A0858BD1F808A0BAF1020F01D100BFF9
:102950006AE0B1F804A0BAF1000F01D1012700E04C
:102960000227DFF814A3DAF800A01AF4000F09D048
:10297000DFF804A3DAF800A02AF4000ADFF8F8B2BE
:10298000CBF800A0DFF8F0A20AF17C0ADAF800A088
:10299000CAF38818DFF8E0A20AF17C0ADAF800A08E
:1029A000CAF30279DFF8D0A2AAF1040ADAF800A08B
:1029B0000AF03F0CDFF8C4A2BAFBFCFA0AFB08FAE3
:1029C000BAFBF9F6B1F806A0BAF5007F0ED14FEACE
:1029D000162A0AEB8A0A4FEA4A0AD1F808B0BAFB6B
:1029E000FBFA0AF1050A1FFA8AF20FE04FEA471ACA
:1029F000B6FBFAFA0AEB8A0A4FEA4A0AD1F808B09B
:102A0000BAFBFBFA0AF1050A1FFA8AF24FF00A0A2A
:102A1000B2FBFAF202F00104A2EB040ACAF34F037C
:102A20004FF6FF7A0AEA0424022B01DBFF2B01DDBB
:102A300002230024B1F806A04AEA040A4AEA030A7B
:102A4000A0F820A0B1F804A0B1F80CB04AEA0B0A33
:102A5000B1F802B04AEA0B0AB1F800B04AEA0B0A30
:102A60004AF4006A4AEA05058583BDE8F08F002133
:102A7000018041808180C180018141818181C1814A
:102A80000721018270470021018041808180C1803F
:102A90000221816000218181704721B1028842F0CA
:102AA0004002028004E002884FF6BF731A400280A1
:102AB000704721B1828B42F48062828304E0828B72
:102AC0004FF6FF331A408283704702884FF2FF733C
:102AD0001A40028002880A4302807047B1F5804F95
:102AE00004D1028842F48042028004E002884BF65E
:102AF000FF731A4002807047A1F57E42FF3A04D06E
:102B0000028842F48072028004E002884FF6FF637C
:102B10001A400280704721B1828842F0040282800C
:102B200004E082884FF6FB731A408280704721B11F
:102B3000828842F01002828004E082884FF6EF73B0
:102B40001A408280704730B500220023848B4FF2F8
:102B500040052C40848302240484828B0C88B4F5C5
:102B6000007F01D00C8814B94FF4807308E00C8802
:102B7000B4F5407F03D00C88B4F5807F00D10023EA
:102B80008C888D892C434D882C431C4344F400646D
:102B90002243828330BD0146888970478181704716
:102BA00021B1028842F40052028004E002884DF60E
:102BB000FF731A4002807047018841F48051018000
:102BC000704702460020012901D0108B00E0908A56
:102BD00070470146088A70471AB183880B43838087
:102BE00002E083888B438380704730B50024002344
:102BF0000C110125A540ABB21AB185881D43858013
:102C000002E085889D43858030BD024600201389FF
:102C10000B4201D0012000E000207047CA4302812E
:102C20007047F0B50246002000240023002501F083
:102C30000F070126BE40B4B20B1101269E40B3B26D
:102C4000968806EA03051689264202D00DB10120B6
:102C500000E00020F0BD10B5002201F00F040123B8
:102C6000A3409AB2D343038110BD0000003001405D
:102C700000380040003C00400838024000127A0052
:102C800010B501218803FFF76FFD00214FF480404C
:102C9000FFF76AFD10BD1A490860704730B5002281
:102CA0008B071C0F0F2303FA04F2154B08338C100B
:102CB00053F824309343124C08348D1044F82530D7
:102CC00023468C1053F824308C07240F00FA04F4A8
:102CD00023430B4C08348D1044F8253030BD09498E
:102CE0000860704708490860704700200449203197
:102CF000096811F4807F01D0012000E000207047B6
:102D000000380140DC0027420004274210B5044689
:102D1000FE48844208D101210846FFF725FD002125
:102D20000120FFF721FD9DE0B4F1804F08D1012182
:102D30000846FFF708FD00210120FFF704FD91E0A0
:102D4000F348844208D101210220FFF7FCFC002156
:102D50000220FFF7F8FC85E0EE48844208D101210B
:102D60000420FFF7F0FC00210420FFF7ECFC79E0E1
:102D7000E948844208D101210820FFF7E4FC002142
:102D80000820FFF7E0FC6DE0E448844208D101210F
:102D90001020FFF7D8FC00211020FFF7D4FC61E0E1
:102DA000DF48844208D101212020FFF7CCFC00211C
:102DB0002020FFF7C8FC55E0DA48844208D1012101
:102DC0000220FFF7D1FC00210220FFF7CDFC49E0F3
:102DD000D548844209D101210804FFF7C5FC002130
:102DE0004FF48030FFF7C0FC3CE0D048844209D16A
:102DF00001214804FFF7B8FC00214FF40030FFF731
:102E0000B3FC2FE0CA48844209D101218804FFF7AE
:102E1000ABFC00214FF48020FFF7A6FC22E0C54860
:102E2000844208D101214020FFF78DFC0021402081
:102E3000FFF789FC16E0C048844208D101218020B8
:102E4000FFF781FC00218020FFF77DFC0AE0BB48F2
:102E5000844207D101218015FFF775FC0021A015E0
:102E6000FFF771FC10BD00220288A84B98420ED0DB
:102E7000AC4B98420BD0B0F1804F08D0A44B984295
:102E800005D0A44B984202D0A34B984204D14FF6F0
:102E90008F731A404B881A43A04B984207D0A04B1F
:102EA000984204D04FF6FF431A400B891A43028020
:102EB0004B68C3620B880385944B984202D0994BB0
:102EC000984201D18B7A03860123838270474FF0A9
:102ED000FF31416000210180018141808172704792
:102EE0000185828270470A46002101884FF68F7360
:102EF000194011430180704741627047C1627047B9
:102F00000146486A70470146088D704721B1028822
:102F100042F00202028004E002884FF6FD731A407C
:102F20000280704721B1028842F00402028004E06E
:102F300002884FF6FB731A400280704721B1028865
:102F400042F08002028004E002884FF67F731A404C
:102F50000280704702884FF6F7731A400280028899
:102F60000A430280704702884FF6FF431A400280EE
:102F700002880A430280704721B1028842F00102B0
:102F8000028004E002884FF6FE731A400280704708
:102F900070B5002400220023058C4FF6FE763540E4
:102FA0000584028C8388048B4FF68F752C40B51EE8
:102FB0002C400D882C43751E2A408D892A434D884C
:102FC0002A43524DA84202D0564DA84213D14FF683
:102FD000F7752A40CD892A434FF6FB752A408D8824
:102FE0002A434FF6FF652B404FF6FF552B400D8AC5
:102FF0002B434D8A2B43838004838D684563028471
:1030000070BD70B5002400220023058C4FF6EF76CA
:1030100035400584028C8388048B48F6FF752C406C
:103020004FF6FF452C400D884FF6FF7606EA052542
:103030002C434FF6DF752A408D8906EA05152A4391
:103040004D8806EA05152A43304DA84202D0354D79
:10305000A8421DD14FF67F752A40CD894FF6FF76E5
:1030600006EA05152A434FF6BF752A408D8806EA01
:1030700005152A434FF6FF352B404FF2FF752B40C5
:103080000D8A06EA85052B434D8A06EA85052B4302
:10309000838004838D688563028470BD70B50024CD
:1030A00000220023058C4FF6FF6635400584028C14
:1030B0008388848B4FF68F752C404FF6FC752C401F
:1030C0000D882C434FF6FF552A408D894FF6FF7629
:1030D00006EA05252A434D8806EA05252A430B4DB5
:1030E000A84202D00F4DA84238D14FF2FF752A40B6
:1030F000CD894FF6FF7606EA05252A434FF6FF35C0
:103100002A408D8806EA05252A4319E0000001407F
:103110000004004000080040000C00400010004087
:103120000014004000040140004001400044014000
:103130000048014000180040001C004000200040F2
:103140004EF6FF752B404DF6FF752B400D8A06EAB3
:1031500005152B434D8A06EA05152B43838084838E
:103160008D68C563028470BD70B500220023002401
:10317000058C4EF6FF7635400584038C8488828B5F
:1031800048F6FF752A404FF6FF452A400D884FF656
:10319000FF7606EA05252A434DF6FF752B408D89FB
:1031A00006EA05352B434D8806EA05352B43FE4DCF
:1031B000A84202D0FD4DA84208D14BF6FF752C4025
:1031C0000D8A4FF6FF7606EA85152C4384808283AC
:1031D0008D680564038470BD002101804180818079
:1031E00081608181C18101824182704770B503464F
:1031F000002000241846183001258D40ACB21D8CEB
:10320000A5431D8409B108290AD100EB61000568B6
:103210004FF68F76354005600568154305600FE071
:103220000D1FC5F34E052844056848F6FF76354066
:10323000056005684FF6FF7606EA0226354305600D
:1032400070BD4163704781637047C163704701641B
:1032500070470A460021018B4FF68F7319401143C6
:10326000018370470A460021018B48F6FF7319401D
:103270004FF6FF7303EA02231943018370470A469E
:103280000021818B4FF68F73194011438183704762
:103290000A460021818B48F6FF7319404FF6FF73F1
:1032A00003EA02231943818370470A460021018BF8
:1032B0004FF6F77319401143018370470A46002106
:1032C000018B4FF2FF7319404FF6FF7303EA02239D
:1032D0001943018370470A460021818B4FF6F7732B
:1032E00019401143818370470A460021818B4FF2B8
:1032F000FF7319404FF6FF7303EA022319438183DA
:1033000070470A460021018B4FF6FB7319401143A9
:10331000018370470A460021018B4FF6FF331940A5
:103320004FF6FF7303EA02231943018370470A46ED
:103330000021818B4FF6FB73194011438183704745
:103340000A460021818B4FF6FF3319404FF6FF7379
:1033500003EA02231943818370470A460021018B47
:103360004FF67F7319401143018370470A460021CD
:10337000018BC1F30E014FF6FF7303EA02231943D9
:10338000018370470A460021818B4FF67F731940F5
:103390001143818370470A460021818BC1F30E01DE
:1033A0004FF6FF7303EA02231943818370470A46ED
:1033B0000021018C4FF6FD731940114301847047C1
:1033C0000A460021018C4FF6F7731940114301841E
:1033D00070470A460021018C4FF6DF7319404FF603
:1033E000FF7303EA02131943018470470A46002160
:1033F000018C4FF67F7319404FF6FF7303EA0213F7
:103400001943018470470A460021018C4FF6FF538F
:1034100019404FF6FF7303EA0223194301847047F2
:103420000A460021018C4FF2FF7319404FF6FF73DB
:1034300003EA02231943018470470A460021018CE4
:103440004DF6FF7319404FF6FF7303EA0233194339
:103450000184704730B5002301248C40A3B2048C52
:103460009C430484048C02FA01F5ADB22C4304841D
:1034700030BD30B5002304248C40A3B2048C9C439F
:103480000484048C02FA01F5ADB22C43048430BDEF
:10349000828B4FF2FF331A408283828B4FF6FF7389
:1034A00003EA01231A4382837047F0B50C461546A0
:1034B000002100220026078C4EF6FF7C07EA0C074D
:1034C0000784818B028C4FF6FF7707EA043640F6BB
:1034D000FF4739404FF6FF7707EA052739434FF694
:1034E000FF7707EA0337394345F6FF773A4046F45A
:1034F00080573A4381830284F0BD828B4FF6F37389
:103500001A408283828B0A4382837047F0B50C464F
:103510001546002100220026078C4FF6FF6C07EAB3
:103520000C070784818B028C4FF6FF7707EA04268D
:103530004FF60C7739404FF6FF7707EA03172F4312
:1035400039434FF2FF573A4046F480773A4381833C
:103550000284F0BD028B4FF2FF331A400283028BCC
:103560004FF6FF7303EA01231A4302837047F0B555
:103570000C461546002100220026078C4FF6EF7CF2
:1035800007EA0C070784018B028C4FF6FF7707EAE6
:10359000041640F6FF4739404FF6FF7707EA033736
:1035A00039434FF6FF7703E000000140000401407B
:1035B00007EA052739434FF65F773A4046F0100790
:1035C0003A4301830284F0BD028B4FF6F3731A4035
:1035D0000283028B0A4302837047F0B50C461546FE
:1035E00000210022068C4FF6FE773E400684018BB8
:1035F000028C4FF60C7631407E1C06EA03162E43F1
:1036000031434FF6F576324044F0010632430183F0
:103610000284F0BD70B505460C46208850B9238958
:10362000A28861882846FFF7D8FFE1882846FFF77F
:10363000CBFF25E0208804280AD12389A28861884D
:103640002846FFF794FFE1882846FFF783FF17E03D
:10365000208808280AD12389A28861882846FFF794
:1036600055FFE1882846FFF748FF09E02389A28833
:1036700061882846FFF719FFE1882846FFF708FF11
:1036800070BD002101804180012181800021C18025
:10369000018170472DE9F04105460C4600260127BF
:1036A000608808B9022600E00026A088012801D120
:1036B000022700E001272088A0B92389A288618819
:1036C0002846FFF78AFFE1882846FFF77DFF238918
:1036D0003A4631462846FFF74AFFE1882846FFF779
:1036E00039FF13E02389A28861882846FFF73FFF4E
:1036F000E1882846FFF72EFF23893A4631462846BF
:10370000FFF76BFFE1882846FFF75EFFBDE8F08119
:103710000146486B70470146886B70470146C86B8D
:1037200070470146086C70470A884B881A438B889B
:103730001A43CB881A430B891A434B891A438B8946
:103740001A43A0F844207047002101804180818005
:10375000C180018141818181704731B1B0F844203D
:1037600042F40042A0F8442005E0B0F84420C2F33F
:103770000E02A0F84420704721B1828842F0040272
:10378000828004E082884FF6FB731A408280704783
:1037900021B1828842F00102828004E082884FF6E3
:1037A000FE731A40828070471AB183890B4383816C
:1037B00002E083898B438381704781827047024690
:1037C0000020138A0B4201D0012000E00020704746
:1037D000CA430282704730B502460020002300240D
:1037E000158A05EA0103958905EA010413B10CB1B4
:1037F000012000E0002030BDCA430282704741EA48
:103800000203A0F8483070471AB183890B438381C3
:1038100002E083898B438381704721B1828842F023
:103820000802828004E082884FF6F7731A40828093
:10383000704701894FF6F8721140018170470A46BE
:10384000002101894FF68F731940114301817047A0
:1038500030B504460D4629462046FFF7F0FF208983
:1038600040F00700208130BD2DE9F04104460D46AF
:1038700016461F46602D06D13B46012231462046A2
:10388000FFF775FE05E03B46012231462046FFF773
:10389000A4FE29462046FFF7D2FF208940F007000A
:1038A0002081BDE8F08130B50C4600210189C9B204
:1038B0004FF6FF7505EA032515432543294301818A
:1038C00030BD2DE9F04105460E46174698460024C6
:1038D00043463A4631462846FFF7E5FF2C894FF626
:1038E000F870044044F007044FF68F70044044F031
:1038F00070042C81BDE8F081F0B504460D461646F3
:103900001F463B46324629462046FFF7CCFF20891A
:1039100040F480402081F0BD82884FF68F731A40BA
:10392000828082880A438280704702894FF6F8734A
:103930001A40028102890A430281704702894FF6C8
:103940007F731A40028102890A4302817047F0B5F1
:103950000C4615461E460021002200230189028BD9
:10396000038C4FF6F877394021434FF6FC473A4035
:1039700040F201173A434FF6DD773B404FF6FF77B1
:1039800007EA06172F433B43018102830384F0BDFE
:1039900021B1828842F08002828004E082884FF662
:1039A0007F731A4082807047A0F850107047D2B2DF
:1039B00001E000F8012B491EFBD270470022F6E718
:1039C00010B513460A4604461946FFF7F0FF204695
:1039D00010BD2DE9FE4F804681EA0300C00F0C4662
:1039E000009021F0004123F00045B8EB0200A9410E
:1039F00005D24046214690461C460B46024623F01F
:103A00000040104304D14046214603B0BDE8F08F8A
:103A1000270DC7F30A00C3F30A510290401A019020
:103A2000402866DAC3F3130040F4801B00989246E6
:103A300020B10023D2EB030A63EB0B0B019859462C
:103A4000C0F14002504600F085F906460D4650464A
:103A50005946019A00F08DF910EB080061410024ED
:103A600087EA115284EAE7731A433BD0009A3AB3CB
:103A7000019A012A4FEA075210DC001B61EB020198
:103A80004FF0004202EA0752CDE90042001C41F526
:103A9000801132462B4600F08BF9B6E7001B61EB34
:103AA0000201001C41F5801300185B412018A2F5AB
:103AB000001747EB030140EAD570B6196D4111E0DC
:103AC0006D084FEA360645EAC0754FEA0752001BFB
:103AD00061EB0201001C41F5801149084FEA3000FA
:103AE0000019514132462B4603B0BDE8F04F00F0BB
:103AF00052B90098012240000023D0EB020263EB90
:103B0000E073009821464FEAE074B8EB000061EBE7
:103B10000401E9E783F000435BE781F0004158E7E7
:103B20002DE9FE4F81EA030404F0004421F0004136
:103B300000944FF0000B23F0004350EA010402D040
:103B400052EA030404D10020014603B0BDE8F08F1F
:103B5000C3F30A54C1F30A552C44A4F2F33401947C
:103B6000A0FB0254C1F3130141F48011C3F313030A
:103B700043F4801301FB024400FB034E840A970ABE
:103B800044EA815447EA8357A4FB076802958D0AEB
:103B900005FB07854FEA932C04FB0C542705029D77
:103BA0004FEA065847EA1637B5EB08056EEB070CE7
:103BB000870E920E47EA811742EA8312A7FB0201A1
:103BC000B6EB0B0164EB00042B0D43EA0C335E18DB
:103BD00044EB1C50DA465146E7FB0201C5F31304DF
:103BE0004FEA0B3343EA14534FEA0432019C43EA91
:103BF0000603A4F10C040294009CCDE900B400F08B
:103C0000D7F8A2E72DE9F04D81EA030404F0004B58
:103C100021F0004514464FF0000A23F0004150EA1D
:103C2000050220D054EA01021DD0C5F30A5702460E
:103C3000C5F31303C1F31300C1F30A5640F4801512
:103C400043F48013A7EB0608101BD64608F2FD3894
:103C500073EB050002D308F1010801E092185B4103
:103C6000B8F1000F03DA00200146BDE8F08D002016
:103C70004FF48011064684460EE0171B73EB0507D0
:103C800005D3121B63EB050306434CEA010C4908FC
:103C90004FEA300092185B4150EA0107EDD152EA39
:103CA000030012D082EA040083EA0501084303D12D
:103CB00000224FF0004308E0101BAB4102D201226A
:103CC000002302E06FF0010253101AEB06004CEBE8
:103CD000085110EB0A0041EB0B01BDE8F04D00F07C
:103CE0005AB80EB5C10F80EAE0700844CA07002137
:103CF00040F233438DE80E000A460B4600F058F8B8
:103D000003B000BD30B5002904DB4FF00044404251
:103D100064EB0101002B04DB4FF00044524264EBE2
:103D200003038B4208BF824230BD000030B500293A
:103D300004DB4FF00044404264EB0101002B04DB44
:103D40004FF00044524264EB0303994208BF904293
:103D500030BD0000202A04DB203A00FA02F10020E6
:103D600070479140C2F1200320FA03F319439040B9
:103D70007047202A06DBCB17203A41FA02F043EACB
:103D8000E07306E041FA02F3D040C2F12002914014
:103D900008431946704710B5002B08DA401C41F162
:103DA000000192185B411A4301D120F0010010BDBF
:103DB0002DE9F04D92469B4611B1B1FA81F202E035
:103DC000B0FA80F220329046FFF7C4FF04460F4657
:103DD00040EA0A0041EA0B0153465A46084303D120
:103DE00020463946BDE8F08D114653EA010015D052
:103DF000C8F14002504600F091F805460E46504684
:103E000059464246FFF7A6FF084301D0012000E0D3
:103E10000020054346EAE0762C4337430A984FEAF0
:103E20004453A0EB08004FEAD4240A304FF00002BC
:103E300044EA47544FEAD72502D500200146D1E78E
:103E4000010510196941DDE9084500196941BDE81E
:103E5000F04DA0E72DE9F04D00231A461B1A8A41C8
:103E600003DB00200146BDE8F08DC1F30A52C1F327
:103E7000130141F480154FF0000BD10702D1001857
:103E80006D41521E0027044640F2FF11384601EBF7
:103E9000620A3E468046024600204FF4801100F040
:103EA0003DF8C2197141BB1846EB0100B4EB030C9D
:103EB00075EB000C04D3E41A65EB000517460E46BB
:103EC000241908F101006D4180463428E3DDF91919
:103ED00046EB0600091BA84103D24FF0FF32134600
:103EE00001E0002213461BEB070046EB0A51BDE838
:103EF000F04DFFF750BF0000064C074D06E0E068AC
:103F000040F0010394E8070098471034AC42F6D320
:103F1000FCF73EF988560008B8560008202A04DB52
:103F2000203A21FA02F00021704721FA02F3D04032
:103F3000C2F120029140084319467047000000007A
:103F400003B401984100009850EAC12018BF042032
:103F50004A0D18BF40F0010040F2FF72B2EB515F12
:103F600008BF40F00200012808BF052002B07047DA
:103F700070B59F482DED020B2DED068B079D25F0AA
:103F80000044A0421DDC9B48844202DC0FD106980D
:103F900068B19DED060B53EC102B51EC100BFFF7A5
:103FA00018FDBDEC068B02B041EC100B70BD002D6E
:103FB000CCBF9FED910B9FED920BBDEC068B02B039
:103FC00070BD9148A04215DD9048A042D8BF4FF087
:103FD000FF3440DD9DED060B51EC100BFFF7B0FFF9
:103FE000042808BF00F0F4F99DED060BBDEC068B2C
:103FF00002B070BD9DED060B51EC100B00F062FAA3
:1040000041EC100B82488DED060B9FED838BA04297
:104010003CDD8348A0421FDD00249FED839B51ECD3
:10402000100B53EC192BFFF7D4FC9DED060B41EC64
:104030001A0B53EC192B51EC100BFFF771FD53ECDD
:10404000182BFFF767FD53EC1A2BFFF7DBFD41EC54
:10405000100B8DED060B49E0012453EC182B51ECAD
:10406000100BFFF7B6FC9DED060B41EC190B53EC62
:10407000182B51EC100BFFF74DFD53EC192BFFF7EC
:10408000C1FD41EC100B8DED060B2FE06848A042FE
:104090001FDD02249FED689B51EC100B53EC192B94
:1040A000FFF73EFD53EC182BFFF793FC9DED060B3D
:1040B00041EC180B53EC192B51EC100BFFF72AFDB8
:1040C00053EC182BFFF79EFD41EC100B8DED060B0A
:1040D0000CE053EC102B03249FED590B51EC100B0B
:1040E000FFF790FD41EC100B8DED060B9DED060BDF
:1040F00053EC102B51EC100BFFF712FD41EC180B99
:1041000053EC182BFFF70CFD41EC190B4E48062120
:10411000B0EE490AF0EE690A784400F0DAF853ECA0
:10412000182B51EC100BFFF7FBFC41EC180B474828
:10413000B0EE490AF0EE690A0521784400F0C9F8AA
:1041400053EC192B51EC100BFFF7EAFC41EC100B70
:1041500051EC180B53EC102B002C0EDAFFF739FC46
:104160009DED061B53EC112BFFF7DAFC9DED061BB2
:1041700053EC112BFFF7D1FC35E0FFF72AFC9DED46
:10418000061B53EC112BFFF7CBFC41EC100B304816
:10419000784400EBC40090ED001B51EC100B53EC85
:1041A000112BFFF7B7FC9DED061B53EC112BFFF70E
:1041B000B1FC41EC110B2748784400EBC40090EDB2
:1041C000000B51EC110B53EC102BFFF7A6FC41EC4C
:1041D000100B002DA2BFBDEC068B02B070BD51ECE0
:1041E000100B81F0004141EC100BFFE600000000D5
:1041F000000010440000F07F182D4454FB21F93FCB
:10420000182D4454FB21F9BF0000DC3F0000203E84
:104210000000F33F00000000000000000000F03F3D
:104220000000E63F00000000000000000000004029
:104230000080034000000000000000000000F83F84
:10424000000000000000F0BF3C150000F214000068
:104250007C1400003414000000B52DED048BB0EE8A
:10426000408AF0EE608A83B051EC180BFFF7F2FD44
:1042700041EC190B19EE100A19EE901A8DED009B06
:10428000002818BF0120084320F00040C0F17F60E3
:1042900000F1E040C00F14D018EE101A18EE900A8A
:1042A0008DED008B002918BF0121084320F000404C
:1042B000C0F17F6000F1E040C00F04BF012000F0BA
:1042C000A7F8B0EE490A03B0F0EE690ABDEC048B22
:1042D00000BD70B504462DED028B4D1E00EBC500F0
:1042E000B0EE408AF0EE608A90ED000B35F00600EB
:1042F00017D053EC182B51EC100BFFF711FC41ECCD
:10430000100B6D1E04EBC50090ED001B51EC100B63
:1043100053EC112BFFF75DFB41EC100B35F0060061
:10432000E7D1022D36D0042D1CD0062D1CBFBDECCC
:10433000028B70BD53EC182B51EC100BFFF7F0FB08
:1043400094ED0A1B53EC112BFFF743FB53EC182B96
:10435000FFF7E6FB94ED080B53EC102BFFF739FB4E
:1043600041EC100B53EC182B51EC100BFFF7D8FB62
:1043700094ED060B53EC102BFFF72BFB53EC182B93
:10438000FFF7CEFB94ED041B53EC112BFFF721FB41
:1043900041EC100B53EC182B51EC100BFFF7C0FB4A
:1043A00094ED020B53EC102BFFF713FB53EC182B7F
:1043B000FFF7B6FB94ED000B53EC102BFFF709FB56
:1043C000BDEC028B41EC100B70BD00000000000042
:1043D0009FED050B10B553EC102B51EC100BFFF7B4
:1043E0009FFB41EC100B10BD00000000000000100E
:1043F00002E008C8121F08C1002AFAD170477047AE
:10440000002001E001C1121F002AFBD1704700000B
:1044100001490860704700009000002010B5002A94
:1044200006DA22F00042D21D22F00703102203E038
:10443000D21C22F003030C2213B19C188C4201D928
:10444000012010BD024401448360C0E90021C91A63
:10445000D018884202D810600246F9E700201060A8
:1044600010BD000008480068C0010BD5074800686F
:10447000C00707D0054880380068002802DA0449E0
:104480000120087070470000FCED00E0800E00E0A5
:10449000860000204FF06042D36F002BFCD0C36A2F
:1044A000D367D36F002BFCD0C07840EA0120A2F87C
:1044B0007C0070474FF06041CA6F002AFCD081F841
:1044C0007C00704741EC100B82B010EE900A8DED2D
:1044D000000B20F0004001909DED000B02B051EC6C
:1044E000100B704770B504000D4603D012B9207848
:1044F000012801D0802070BD204600F0DBFA28B1F1
:104500002946204600F040F8002070BD812070BD93
:104510000246084810B500EB810050F8040C002852
:1045200006D0114600F01AFCBDE8104000F006BCB1
:1045300010BD0000141B001010B50446808900282F
:1045400021D0608904EB800000690860607802284F
:1045500005D10021204600F001FC00F0EFFB04F142
:104560000C0000BFD0E85F1F491EC0E8521F002AA0
:10457000F8D16089401C80B26081E189884201D114
:1045800000206081042010BD10B500F0E7FBBDE8FD
:10459000104000F0D3BB0000EFF3058109B1822089
:1045A0007047DFF808C000DF70470000695200085C
:1045B000EFF305820AB182207047EFF31482144BA7
:1045C00012F0030206D0012A1BD0022A11D0032ABE
:1045D00019D113E0EFF3088282F309881A78D20721
:1045E0000AD0022282F31488BFF34F8FBFF36F8F7C
:1045F00009E01A78D20706D10322F3E71A78D20726
:1046000001D0FF207047DFF80CC000DF70470000CA
:10461000685500087D5200082DE90E40EFF3058231
:10462000B2B102004FF0800000D021B10090DDE96E
:10463000011203B000BD11780129F7D101A910467C
:10464000FFF77AFF042801D00020EFE71020EDE704
:10465000DFF804C000DFECE7755300082DE9704077
:10466000EFF3058272B10C4600F038FD4FF00045C3
:1046700030B1210C04D1058BC178A0B2FFF748FFFF
:10468000284670BDDFF804C000DF70BDAF530008DE
:10469000EFF305830BB182207047DFF808C000DF1D
:1046A00070470000D5530008DFF80CC000DFDFF8CA
:1046B0000CC000DFFEE7000099540008B554000864
:1046C000DFF804C000DF7047ED540008094C4FF0DC
:1046D000FF3529462068FFF79FFF02460846102A4B
:1046E000F7D1FFF7EDFF0028F3D0024608469047C8
:1046F000EFE70000200000204FEA000151E8000F22
:1047000028B1036841E80032002AF7D17047BFF3AF
:104710002F8F704710B568B161B10B3121F00302E2
:10472000016844680B1A1B1B934205D208460968AE
:104730000029F5D1002010BD3CB121180368C1E962
:104740000032016001F1080010BD4260083010BD68
:1047500070B50C46002812D04FF6FF71084D884204
:1047600004D22A680146104600F024FB28684470F1
:10477000044800F025F9BDE8704000F0DDBB70BDD5
:1047800078000020C40000200F4810B50D49426891
:104790000E480B680088934204D00A60CB88421E02
:1047A0001A448A808A8882420AD10020086006481A
:1047B00000F006F90146BDE81040034800F028BBB0
:1047C00010BD000088000020C400002084000020EC
:1047D00070B5194DE86800282CD0A88A401EA88220
:1047E000002621E0A06838B161684160606810B1BE
:1047F000A16881606660A6600F482146183800F005
:1048000007FBA08AA8826078042804D10B49E08ABB
:1048100009880844A08201206070E068E860E068D0
:1048200008B10561E6602661A88A002802D1EC681B
:10483000002CD7D170BD0000DC00002084000020D7
:1048400070B504000FD00D4DA1780126286882783C
:1048500091420CD900F0F8FA286846702046BDE86D
:10486000704000F069BB064800F0AAF8F7E76670F0
:104870002146BDE87040024800F0CABA7800002026
:10488000C40000200321FFF763BF000010B50446F9
:10489000008B084320836278618B062A18D0052A92
:1048A00019D1084217D001EA0002628388432083AD
:1048B000204600F0E9FA01206070628B0821204652
:1048C00000F0DAFA2146BDE81040034800F0A0BA33
:1048D00031EA0002EAD010BDC400002002461548AB
:1048E00010B500EB810050F8044C002C21D0208B37
:1048F000104320836278618B062A17D0052A18D1CD
:10490000084216D001EA00026283884320832046D1
:1049100000F0BAFA01206070628B0821204600F096
:10492000ABFA2046BDE81040FFF78ABF31EA00022B
:10493000EBD010BD141B001003460E4810B50468E0
:104940008C46208B42B133EA000101D0062009E0F9
:1049500098432083022010BD10EA030201D0628335
:10496000F6E70520C1B263836046FFF7F1FE012040
:1049700010BD000078000020814202D342688A42C4
:1049800001D80120704750E8002F0A6040E800126B
:10499000002AF8D10020704768B161B108390022BF
:1049A00002E00246006830B18842FAD12AB10068BC
:1049B0001060002070470120704700214160F8E737
:1049C0000146406842684A600B780022022B05D0FD
:1049D000012B03D0032B01D04260704743680BB119
:1049E0009960426082607047810700D00020704764
:1049F00070B5044600201546207001226270A17037
:104A00006060A060E0602061A082E082208360831B
:104A100084F82000608C18B90448FFF76DFEA0628E
:104A200029462046BDE8704000F01CB86001001027
:104A300008B1082901D2012070470144091F002252
:104A400001600A6042601046704700000348002180
:104A5000016003490968C180704700008800002098
:104A60006055000810B5428C920803D10F4A1268B5
:104A7000C2F38D02836A03EB8202530700D5121F33
:104A8000403A4FF08073C2E90E1300234FEA03044B
:104A900042F823405B1C0E2BFAD3C36913624262B7
:104AA000C162806A0249016010BD00005C550008C7
:104AB000A52E5AE2C1898089081A70470122027026
:104AC00000224270827042600281428110398281EC
:104AD0008908C181704700002DE9F0410446407803
:104AE00000270E464FF00108012855D004F10C05AF
:104AF00002282BD0032818D0A089E189884262D2ED
:104B0000208904EB80000661D5E85F0F401CC5E8F2
:104B1000510F0029F8D12089401C80B22081E18901
:104B2000884200D12781BDE8F0810846FFF7E4FD07
:104B30000600F8D02046FFF743FF0546606800B93D
:104B400067703146284600F091F931E02046FFF7C2
:104B500037FF0646606800B967700021304600F0F4
:104B600085F92189F06904EB81010861D5E85F0FBF
:104B7000401CC5E8510F0029F8D12089401C80B2A3
:104B80002081E189884200D1278186F80180304662
:104B900000F07AF9314611E02046FFF711FF054693
:104BA000606800B9677032461021284600F064F949
:104BB00085F80180284600F067F92946BDE8F041F4
:104BC000034800F025B9BDE8F0410320FBF7BEBC67
:104BD000C400002070B50446808915460026C8B37D
:104BE000608904EB8000006908606089401C80B225
:104BF0006081E189884200D16681607802280AD00C
:104C000014F10C04D4E85F0F401EC4E8510F0029D2
:104C1000F8D1002070BD2046FFF7D2FE054660683F
:104C200000B966700021284600F020F92189E86962
:104C300004EB810108612089401C80B22081E18958
:104C4000884200D12681284600F01EF92846FFF749
:104C5000F7FDDEE7FFE73DB10A48626801682AB167
:104C6000204600F0D5F807E0012070BD61600068C3
:104C7000C0E901640120607008212846FFF768FD43
:104C8000F2E7000078000020411C13D00B4A4FF6D9
:104C9000FE7190420CD800EB4002C2EBC0120848F3
:104CA000036803EBC202521EB2FBF3F0884200D944
:104CB000084670474FF6FF707047000000093D003E
:104CC0006C55000870B51A4801210068417000F069
:104CD000BBF8184D6C7816E005EBC4014868027803
:104CE000E2B1012A1FD000F0FBF8E878641C84428E
:104CF00000D100240F48801CD0E84F1F491EC0E897
:104D0000421F002AF8D1A8780028E5D16C700A4823
:104D1000FFF756FEBDE8704000F00EB9896889B211
:104D2000FFF7B4FDE1E78968FFF7D6FEDDE7000095
:104D300078000020901A0010C40000200548017877
:104D400011B101214170704703494FF08050086054
:104D5000704700008000002004ED00E0F0B4144B28
:104D60009C1CDD784FEA030CD4E84F2FAA4202D1F5
:104D7000BFF32F8F0EE0521CC4E8462F002EF3D154
:104D8000DCE84F2F541CAC4200D10024CCE8464F45
:104D9000002EF5D1DC78944205D903EBC202C2E9BA
:104DA0000101F0BC7047F0BC0220FBF7CFBB000054
:104DB000901A0010154A10B5D368FBB113469B8AB0
:104DC00009E000BFD2F80CC0BCF1000F16D0BCF84F
:104DD0001440624623448B42F4D3D468C460D0604C
:104DE0000261D0F80CC0BCF1000F01D0CCF810006B
:104DF000591A8182908A401A908210BD0024C460A2
:104E0000D060C91A02619182848210BDDC0000204A
:104E100010B502780023022A03D0012A01D0032A08
:104E200000D1012391F802C000E01046426812B19F
:104E300094786445F9D24A6041601BB102B1916037
:104E4000886010BD0020FBE703494A6842600022E9
:104E50008260486070470000C400002090F8201075
:104E6000406A09B1603070472030704710B50C4679
:104E7000FFF7F4FF046010BD70B50C461546FFF750
:104E8000EDFFC0E9004570BD10B5016900290ED0E5
:104E9000C268CA60C36800223BB18B8A848A2344FB
:104EA0008B82C3681961C26000E08A82026110BD12
:104EB000816839B142684A604168002901D0806840
:104EC00088607047054906E04A68824202D140681E
:104ED0004860704711460029F6D17047C400002091
:104EE00010B5416881B1FFF76BFD0446FFF7CCFFB9
:104EF0000120607001462046FFF7B8FF2146BDE85B
:104F000010400348FFF784BF4188491C418010BD11
:104F1000C400002006480068D0E90910814203D38C
:104F200000680449884202D00120FBF70FBB70479C
:104F300078000020A52E5AE20749022248604270FC
:104F4000064A1278002A05D006C98A4202D0C078E3
:104F5000FFF7B0BA704700007800002086000020FC
:104F60002DE9F04104460D469046FFF77BFA0020FC
:104F700006463849384B02E041F82060401C1A8848
:104F80009042F9D33548302201883548FFF746FA78
:104F90003448006880B240F000423348016833482A
:104FA000FFF73CFA32480822018832480068FFF7D0
:104FB00035FA314FFF20314AF8707E84002138469F
:104FC000FFF716FD2E480421017046602D48017040
:104FD000C66006618682786A2030FBF7E3F82A48CB
:104FE0002B490760022078702848067046700978BF
:104FF000C170284801684FF0E020416186610721B7
:10500000016125480168254A114301600068224971
:1050100000F07F40C0431439B0FA80F00968C0F155
:105020000800C1F30221814200DB481C1A49091F14
:105030000B686FF08072824063F317020A60FFF71B
:1050400005FD424629462046BDE8F041002300F018
:105050006DB80000141B0010585500087455000866
:10506000000000105C550008785500086001001031
:105070009C550008180000209400002049050008F5
:10508000C4000020DC00002078000020901A0010EE
:10509000805500086455000820ED00E00000FFFF87
:1050A0000B4810B5006801214170FFF7CDFEFFF7F6
:1050B0006BFB08490888401C0880FFF789FB00F05B
:1050C00021FA0548FFF77CFCBDE81040FFF734BF2C
:1050D0007800002084000020C4000020002805D0B3
:1050E000810702D10178002900D00020704700001C
:1050F00030B50D4C0023226808E000BFB2F808C0AC
:105100008C4505D813461268A1EB0C01002AF5D195
:1051100089B20260018112B11589691A11810BB13E
:10512000186030BD206030BD740000202DE9F041D2
:10513000804616461F460D4611F0FF0F00D14D1C4C
:105140001648FFF7D9FA040026D0280AA662608420
:10515000E9B242462046E761FFF74AFC01251048C4
:10516000104905E000EB850252F8042C22B16D1CB9
:105170000A889542F6D9002500EB850040F8044CDA
:105180000948E570007818B101212046FFF782F93F
:105190002046FFF755FB2846BDE8F08100000010CF
:1051A000141B001058550008860000202DE9F0411E
:1051B000244C234F244B22680026D17808B1814229
:1051C00018D103EB8100567040F8046C1F48916AB7
:1051D000FFF7D2FB20688662397811B10021FFF712
:1051E00059F91B482168FFF7C7FB00202660FFF72D
:1051F00027FB1FE01749098888421ED803EB80056A
:1052000055F8044CCCB12046FFF752FE2046FFF77C
:105210003BFE45F8046C0D48A16AFFF7ADFBA662A2
:10522000387818B100212046FFF734F921460848A4
:10523000FFF7A2FB0020BDE8F081FF20FBE70000A4
:105240008600002078000020141B00106001001070
:10525000000000105855000802480068002800D0DF
:10526000C07870477800002010B5002805D0FFF7FF
:105270000BFD80B2FFF706FB402010BD70B50400A7
:105280000D4608D0206830B1B4F9040010F1030FC6
:1052900001DB032801DD862070BD244E306840B15B
:1052A000204600F0C1F8A0B100F0F6F800F002F9D5
:1052B00037E01F4840070CD11E4801681C48FFF723
:1052C000B7FB30B9E16831B11948FFF723FA0200A2
:1052D00002D1852070BD0022B4F90400E168001DF0
:1052E00040EA01212068FFF73BFE7068D8B1C07822
:1052F000114901EB800050F8040C3060416A0D62E6
:10530000406A0E49416300210D4800F021F80D4923
:10531000086000210C4800F087F80C490860002064
:105320003060002070BDFF2070BD000078000020BC
:10533000301400107C550008141B0010A94600080A
:105340009455000820000020845500081C0000200F
:1053500010B5040005D0216819B1606808B1027861
:105360000AB1002010BD8900103189B2FFF7A6FBF9
:10537000606810BD3EB504000D464FF0800012D0AD
:10538000217801290FD12846FFF77EFC82B201A9BE
:105390002046FFF71FFC012801D0102003E00DB1CB
:1053A000402000E00020DDE9011203B030BD70B5FF
:1053B0000C46FFF793FE4FF0004108B1220C01D0DC
:1053C000084670BD058BC178A0B2FFF787FA284662
:1053D00070BD000070B504460D46000C01D086205B
:1053E0001EE008462CB1FFF74FFC81B20122A0B2AB
:1053F00005E0FFF749FC81B200224FF6FF70FFF78E
:105400009BFA022802D04DB1402008E008200CB1E0
:10541000214605E003490968498B01E0002000218D
:10542000324670BD7800002070B504000E462BD0C7
:10543000206848B3B4F9040010F1030F24DB0328FB
:1054400022DCE16829B11148FFF764F9050015D0A5
:1054500000E00025B4F90400E168001D40EA0121E4
:1054600033462A462068FFF761FE40B1084901EB48
:105470008000084950F8040C426A516370BD1DB1A8
:1054800029460248FFF788FA002070BD301400104A
:10549000141B0010A946000810B5FFF7DDFE002818
:1054A00004D0034901EB800050F8040C10BD00004B
:1054B000141B001070B5FFF711FE040003D0608CC0
:1054C00018B1A56A02E0802070BD0025E078FFF7E2
:1054D0006DFEFF2806D01DB10348A16AFFF75CFAF4
:1054E000002070BD812070BD3014001010B5FFF792
:1054F0007BFA20B101690A68C168104610BD00201E
:10550000014610BD2DE9F041114E3468002C18D031
:105510002089104F401E20814FF001080EE02546E3
:1055200024683460002229463868FEF7DBFF68797A
:10553000012808D085F80480002C02D0208900289A
:10554000EDD0BDE8F08169892846FFF7D1FDF3E78A
:10555000740000202000002007000000200302014A
:10556000050001003F90020001000000E803000078
:10557000000000005C010000D01200006006000086
:1055800010000000CD4600080200000001000000ED
:105590002003000004000000301B00100000000089
:1055A0005105000800000000010000002003000079
:1055B0000A000000010000000000000000000000E0
:1055C0000A000000010000000000000000000000D0
:1055D0000A000000010000000000000000000000C0
:1055E0000A000000010000000000000000000000B0
:1055F0004FBB610567ACDD3F182D4454FB21E93FEB
:105600009BF681D20B73EF3F182D4454FB21F93FD9
:10561000E2652F227F2B7A3C075C143326A6813C5F
:10562000BDCBF07A8807703C075C143326A6913C0A
:10563000C4EB98999999C9BF711623FEC671BCBF76
:105640006D9A74AFF2B0B3BF9AFDDE522DDEADBFDE
:105650002F6C6A2C44B4A2BF0D5555555555D53FF6
:10566000FF8300922449C23F6E204CC5CD45B73F11
:10567000513DD0A0660DB13FEB0D76244B7BA93F89
:1056800011DA22E33AAD903FB8560008000000203E
:1056900094000000F0430008B85600080000001015
:1056A000501B0000004400084C57000894000020E4
:1056B0006404000000440008007A030A00000000AF
:1056C00000000000010203040607080900000000B2
:1056D00000000000000000000000000000000000CA
:1056E00000000000000000000000000000000000BA
:1056F00000000000000000000000000000000000AA
:105700000000000000000000000000000000000099
:105710000000000000000000001000000000000079
:105720000102030401020304060708090000000047
:105730000000000000000000000000000000000069
:0C5740000000000000000000000000005D
:040000050800018965
:00000001FF
