:020000040800F2
:10000000F0040020250500082D0500082F05000834
:100010003105000833050008350500080000000020
:1000200000000000000000000000000009020008BD
:100030003905000800000000AD0200080D030008AB
:100040003F0500083F0500083F0500083F05000880
:100050003F0500083F050008F3110008B71100082C
:100060003F0500083F0500083F0500083F05000860
:100070003F0500083F0500083F0500083F05000850
:100080003F0500083F0500083F0500083F05000840
:100090003F0500083F0500083F0500083F05000830
:1000A0003F0500083F0500083F0500083F05000820
:1000B0003F0500083F0500083F0500083F05000810
:1000C0003F0500083F0500083F0500083F05000800
:1000D0003F0500083F0500083F0500083F050008F0
:1000E0003F0500083F0500083F0500083F050008E0
:1000F0003F0500083F0500083F0500083F050008D0
:100100003F0500083F0500083F0500083F050008BF
:100110003F0500083F0500083F0500083F050008AF
:100120003F0500083F0500083F0500083F0500089F
:100130003F0500083F0500083F0500083F0500088F
:100140003F0500083F0500083F0500083F0500087F
:100150003F0500083F0500083F0500083F0500086F
:100160003F0500083F0500083F0500083F0500085F
:100170003F0500083F0500083F0500083F0500084F
:100180003F0500083F050008DFF814D003F0BCFF6E
:100190000021024804F070FFFEE70000B45F000891
:1001A000F004002080F309887047684680F30988CE
:1001B00004480078C00714BF0220032080F314888D
:1001C000704700007C5F0008DFF818C0EFF305837C
:1001D0001B0618BF6047EFF31483DB0708BF6047B7
:1001E00000DF70478D510008DFF818C0EFF305837A
:1001F0001B0618BF6047EFF31483DB0708BF604797
:1002000000DF7047B1530008EFF30980816911F8EE
:10021000021C002933D190E80F1010B5E047BDE86B
:100220001040EFF3098C8CE807001D4B93E80600A3
:10023000914208BF704781B11EF0100F06BF2CED30
:10024000108A0120002081F820002CE9F00FC1F86D
:1002500024C00CB405F07AFB0CBC1A60D2F824C0A0
:10026000BCE8F00F92F8200000281ABFBCEC108AFE
:100270006FF0120E6FF0020E8CF30988704710B504
:10028000084A1268914209D8074C54F8214090E876
:100290000F10A047EFF3098C8CE80F0010BD000091
:1002A000740000204C4100084C41000810B505F0D6
:1002B00025FABDE81040174B93E80600914208BFAD
:1002C0007047EFF3098C1EF0100F06BF2CED108A5B
:1002D0000120002081F820002CE9F00FC1F824C093
:1002E0000CB405F033FB0CBC1A60D2F824C0BCE897
:1002F000F00F92F8200000281ABFBCEC108A6FF0B3
:10030000120E6FF0020E8CF30988704710B505F0DD
:10031000E3FBCEE7740000200CB5002001900090B4
:100320007548006840F480307349086000BF724827
:10033000006800F4003000900198401C0190009883
:1003400018B90198B0F5A06FF1D16B48006810F4AE
:10035000003F02D00120009001E0002000900098B2
:10036000012845D164484030006840F0805062491F
:10037000403108606148006840F480405F4908608F
:100380005D48083000685C4908310860084600682C
:1003900040F4004008600846006840F4A05008603F
:1003A0005748091F0860081F006840F08070091F47
:1003B000086000BF5048006810F0007FFAD040F29B
:1003C0000560504908604C480830006820F0030080
:1003D0004949083108600846006840F0020008609A
:1003E00000BF45480830006800F00C000828F8D12C
:1003F0000CBD10B54448006840F4700042490860E4
:100400003D48006840F001003B49086000203A493F
:1004100008310860384800683C490840364908609F
:100420003B48091D0860081F006820F48020091F50
:100430000860002030490C310860FFF76DFF4FF075
:10044000006031498039086010BD70B5002000227D
:10045000022300240221284D08352D6805F00C00E8
:1004600020B1042806D0082834D107E0294D2A4EAF
:10047000356033E0294D284E35602FE01E4D2D1D8F
:100480002D68C5F380541C4D2D1D2D6805F03F01CE
:1004900054B1224DB5FBF1F5174E361D3668C6F343
:1004A000881605FB06F209E01A4DB5FBF1F5124E70
:1004B000361D3668C6F3881605FB06F20E4D2D1D57
:1004C0002D68C5F301456D1C6B00B2FBF3F5124EB0
:1004D000356003E00F4D104E356000BF00BF064D84
:1004E00008352D68C5F303150D4E705D0A4D2D6856
:1004F000C540094E356070BD0038024000700040B4
:1005000008544007003C024088ED00E0FFFFF6FE83
:10051000103000240024F4000000002000127A00B3
:10052000040000200648804706480047FEE7FEE733
:10053000FEE7FEE7FEE7FEE7FEE7FEE7FEE7FEE793
:10054000F30300088901000800BFFEE700BFFEE7D3
:100550002DED048B86B001F0B3F801F0BDFA9FEDEC
:100560001F0BB0EE409AF0EE609A9FED1E0BB0EEBE
:10057000408AF0EE608A01F0BFFA2DE08DED009B1D
:100580001AA2072104A803F0E3FD8DED008B17A24A
:10059000072102A803F0DCFD02A904A801F0CEFAAD
:1005A0009FED130B53EC102B51EC190B03F0BBFA1E
:1005B00041EC100BB0EE409AF0EE609A9FED0C0B00
:1005C00053EC102B51EC180B03F0ADFA41EC100B6F
:1005D000B0EE408AF0EE608AD0E70000B199DE26E6
:1005E000258B3840ADBF2500FF1D4140256600002A
:1005F000000000000000E03F2DE9F0412DED048BEC
:1006000007460D4614469FED260BB0EE408AF0EEED
:10061000608A384603F00FFC41EC100B6068401E06
:1006200005EBC00080ED000B012615E0701E05EB08
:10063000C00090ED001BB0EE410AF0EE610A53ECF1
:10064000102B51EC180B03F06EFA41EC100BB0EECE
:10065000408AF0EE608A761C2068B042E6DA2068B4
:1006600003F0E9FB41EC100BB0EE409AF0EE609A1B
:1006700053EC192B51EC180B03F06EFB41EC100BF3
:1006800084ED020B6068401C6060D4E90001401CEE
:10069000814201D101206060BDEC048BBDE8F08196
:1006A0000000000000000000002100E0491C814221
:1006B000FCD3704770B50024002513E06019B0F535
:1006C000FA6F02DA6019002800DC6D422C44F94808
:1006D0000460001D0460001D0460001D04606420AF
:1006E00004F0BEFCF448006818B1F4480068002823
:1006F000E4D170BD2DED108BD6B09FEDF10B8DEDDB
:10070000500B9FEDF10B8DED4E0B9FEDF10B8DED31
:100710004C0B502138A803F0FBF9502124A803F01A
:10072000F7F9502110A803F0F3F9EB4BD3E90021BE
:10073000D3E90203CDE90E03CDE90C21E64B1033DA
:100740000FCBCDE90A23CDE90801E34B2033D3E9F0
:100750000020D3E90213CDE90613CDE9042020E1FE
:100760004FF0FF31012004F0DDFC01AB07C352A8BC
:1007700000F013FF0CAA38A95298FFF73DFF08AA12
:1007800024A95398FFF738FF04AA10A95498FFF73B
:1007900033FF9DED0E1BB0EE410AF0EE610A9FEDB6
:1007A000CF1B53EC112B51EC100B03F063FA41EC0F
:1007B000100BB0EE40BAF0EE60BA9DED500B53EC6A
:1007C000102B51EC1B0B03F04FFA41EC190B9DED74
:1007D0000A1BB0EE410AF0EE610A9FEDC01B53EC1C
:1007E000112B51EC100B03F045FA41EC100BB0EE5D
:1007F00040BAF0EE60BA9DED4E0B53EC102B51EC6D
:100800001B0B03F031FA41EC1A0B9DED061BB0EE09
:10081000410AF0EE610A9FEDB11B53EC112B51EC34
:10082000100B03F027FA41EC100BB0EE40BAF0EEDB
:1008300060BA9DED4C0B53EC102B51EC1B0B03F0ED
:1008400013FA41EC180B53EC182B51EC180B03F076
:1008500011FA41EC100B8DED020B53EC1A2B51ECFD
:100860001A0B03F007FA41EC100B8DED000B9DED18
:10087000020B53EC102B9DED000B51EC100B03F011
:1008800052F941EC100BB0EE40FAF0EE60FA03F0D2
:10089000FFFDB0EE40EAF0EE60EA53EC1E2B51ECA7
:1008A000190B03F059FA41EC100BB0EE40DAF0EE00
:1008B00060DA03F079FCB0EE40CAF0EE60CA9FED5A
:1008C000890B53EC102B51EC1C0B03F0D3F941ECCA
:1008D000100BB0EE40BAF0EE60BA9FED840B53EC13
:1008E000102B51EC1B0B03F037FA41EC100B814835
:1008F00080ED000B53EC182B51EC180B03F0BAF9F8
:1009000041EC100B8DED020B53EC192B51EC190B34
:1009100003F0B0F941EC100B8DED000B9DED020BD7
:1009200053EC102B9DED000B51EC100B03F0FBF87A
:1009300041EC100BB0EE40FAF0EE60FA03F0A8FDC7
:10094000B0EE40EAF0EE60EA53EC1E2B51EC1A0BCD
:1009500003F002FA41EC100BB0EE40DAF0EE60DA90
:1009600003F022FCB0EE40CAF0EE60CA9FED5D0BD2
:1009700053EC102B51EC1C0B03F07CF941EC100BE9
:10098000B0EE40BAF0EE60BA9FED580B53EC102B6E
:1009900051EC1B0B03F0E0F941EC100B564880EDD5
:1009A000000BDDE670B54FF470405449088064E2F6
:1009B0009FED530B53EC102B4E4890ED000B51EC78
:1009C000100B03F05DFA0DD89FED4F0B53EC102B7D
:1009D000484890ED000B51EC100B03F03DFA01D2AA
:1009E00001254CE09FED480B53EC102B414890ED56
:1009F000000B51EC100B03F043FA0DD89FED440BA4
:100A000053EC102B3B4890ED000B51EC100B03F016
:100A100023FA01D2022532E09FED3D0B53EC102B5F
:100A2000344890ED000B51EC100B03F029FA0DD86F
:100A30009FED390B53EC102B2E4890ED000B51EC31
:100A4000100B03F009FA01D2032518E09FED320BD9
:100A500053EC102B274890ED000B51EC100B03F0DA
:100A60000FFA0CD89FED2E0B53EC102B214890ED74
:100A7000000B51EC100B03F0EFF900D204259FEDB1
:100A8000200B53EC102B1C4890ED000B51EC100B7D
:100A900003F0F6F948D89FED1C0B53EC102B1648C9
:100AA00090ED000B51EC100B03F0D6F93CD2012471
:100AB00087E00000340800403400002030000020AF
:100AC000F2B0506B9A778C3F705F07CE19519ABF86
:100AD000FCA9F1D24D62A0BFC85F0008FCA9F1D209
:100AE0004D62503F00000000008066406F1283C0DE
:100AF000CA21094040000020480000201A0C024092
:100B000000000000008056C000000000008046C0C9
:100B100000000000000000000000000000804640CF
:100B200000000000008056401FED090B53EC102B15
:100B3000FE4890ED000B51EC100B03F0A1F90DD81D
:100B40001FED0D0B53EC102BF84890ED000B51EC02
:100B5000100B03F081F901D2022432E01FED140BD7
:100B600053EC102BF14890ED000B51EC100B03F0FF
:100B700087F90DD81FED180B53EC102BEB4890EDB7
:100B8000000B51EC100B03F067F901D2032418E0BD
:100B90001FED1F0B53EC102BE44890ED000B51ECB4
:100BA000100B03F06DF90CD81FED230B53EC102B39
:100BB000DE4890ED000B51EC100B03F04DF900D224
:100BC0000424012D54D1012C06D0022C17D0032C63
:100BD00028D0042C4AD138E04FF48051D44801F099
:100BE00002FC4FF4FA7004F03BFA4FF48051D04805
:100BF00001F0F9FB4FF4FA7004F032FA37E04FF4E9
:100C00008051CB4801F0EFFB4FF4C87004F028FA94
:100C10004FF48051C64801F0E6FB4FF4C87004F071
:100C20001FFA24E04FF48051C14801F0DCFB4FF47F
:100C3000967004F015FA4FF48051BD4801F0D3FBD3
:100C40004FF4967004F00CFA11E04FF48051B8485C
:100C500001F0C9FBC82004F003FA4FF48051B448F6
:100C600001F0C1FBC82004F0FBF900E000BF00BFA9
:100C7000022D54D1012C06D0022C17D0032C28D0E1
:100C8000042C4AD138E04FF40051A94801F0ABFBE5
:100C90004FF4FA7004F0E4F94FF40051A44801F065
:100CA000A2FB4FF4FA7004F0DBF937E04FF4005187
:100CB0009F4801F098FB4FF4C87004F0D1F94FF44D
:100CC00000519B4801F08FFB4FF4C87004F0C8F945
:100CD00024E04FF40051964801F085FB4FF49670E4
:100CE00004F0BEF94FF40051914801F07CFB4FF441
:100CF000967004F0B5F911E04FF400518C4801F002
:100D000072FBC82004F0ACF94FF40051884801F0A0
:100D10006AFBC82004F0A4F900E000BF00BF032D67
:100D200054D1012C06D0022C17D0032C28D0042C2F
:100D30004AD138E04FF480417D4801F054FB4FF434
:100D4000FA7004F08DF94FF48041794801F04BFBC3
:100D50004FF4FA7004F084F937E04FF4804174489E
:100D600001F041FB4FF4C87004F07AF94FF4804170
:100D70006F4801F038FB4FF4C87004F071F924E0BB
:100D80004FF480416A4801F02EFB4FF4967004F056
:100D900067F94FF48041664801F025FB4FF49670E7
:100DA00004F05EF911E04FF48041614801F01BFB53
:100DB000C82004F055F94FF480415D4801F013FB61
:100DC000C82004F04DF900E000BF00BF042D54D14D
:100DD000012C06D0022C17D0032C28D0042C4AD189
:100DE00038E04FF40041524801F0FDFA4FF4FA7038
:100DF00004F036F94FF400414D4801F0F4FA4FF495
:100E0000FA7004F02DF937E04FF40041484801F042
:100E1000EAFA4FF4C87004F023F94FF40041444853
:100E200001F0E1FA4FF4C87004F01AF924E04FF42D
:100E300000413F4801F0D7FA4FF4967004F010F9E2
:100E40004FF400413A4801F0CEFA4FF4967004F0A6
:100E500007F911E04FF40041354801F0C4FAC82009
:100E600004F0FEF84FF40041314801F0BCFAC8200C
:100E700004F0F6F800E000BF00BF2E48006820B183
:100E80002D48006800283FF493AD70BD2DED068B12
:100E90009CB02A4B0FCBCDE91A23CDE91801502184
:100EA00004A802F035FE7EE04FF0FF31022004F08E
:100EB00039F901AB07C3224800F0CCFF00BF022183
:100EC0001F4801F0E9F80028F9D01D4800F0FEFFA6
:100ED000044618AA04A92046FFF78EFB9DED1A1BB5
:100EE000B0EE410AF0EE610A9FED161B53EC112B98
:100EF00051EC100B02F030FF41EC100BB0EE409AB9
:100F0000F0EE609A9FED110B53EC102B51EC190B86
:100F100002F0B0FE41EC180B9FED0E0B53EC102BC2
:100F200051EC180B02F0A0FE18E000004800002071
:100F3000000C02403400002030000020F85F000860
:100F4000002001400000000000FEAF400000000053
:100F50000000084052B81E85EB51E83F41EC100BF1
:100F6000B0EE40AAF0EE60AA9FEDAC0B53EC102B54
:100F700051EC1A0B02F0F0FE41EC100BB0EE409A6F
:100F8000F0EE609A9FEDA70B53EC102B51EC190B70
:100F900002F0C9FD41EC100BA44880ED000B0221CA
:100FA000A34801F082F87FE710B52DED048B9FED8B
:100FB000A10BB0EE409AF0EE609A4FF470409F495A
:100FC0000880AFE053EC192B984890ED000B51ECE2
:100FD000100B02F049FE41EC180B9FED990B53ECFE
:100FE000102B51EC180B02F04BFF49D84FF48051F5
:100FF00092481A3801F0D2F9012806D14FF4405135
:101000008E481A3801F0EFF932E04FF400518B4866
:101010001A3801F0C3F9012806D14FF4C0418748BE
:101020001A3801F0E0F923E04FF4804183481A3880
:1010300001F0B4F9012806D14FF440417F481A3835
:1010400001F0D1F914E04FF400417C481A3801F066
:10105000A5F9012806D14FF4104178481A3801F05B
:10106000C2F905E04FF4805174481A3801F0BBF919
:101070006E4890ED000BB0EE409AF0EE609A51E0B1
:101080009FED710B53EC102B51EC180B02F0E4FEAA
:1010900048D84FF4805169481A3801F07FF9012887
:1010A00006D14FF4104165481A3801F09CF932E03E
:1010B0004FF4005161481A3801F070F9012806D147
:1010C0004FF440515D481A3801F08DF923E04FF498
:1010D00080415A481A3801F061F9012806D14FF4CD
:1010E000C04156481A3801F07EF914E04FF400412F
:1010F00052481A3801F052F9012806D14FF4404104
:101100004E481A3801F06FF905E04FF480514B4812
:101110001A3801F068F9454890ED000BB0EE409A9E
:10112000F0EE609A4A48006820B94A4800680028F2
:101130003FF448AFBDEC048B10BD10B54FF47040C8
:101140003E49088013E04FF470413C481A3801F0E2
:101150004AF94FF4FA7003F083FF4FF470413748B7
:101160001A3801F040F94FF4FA7003F079FF38486B
:10117000006818B9374800680028E4D110BD19E0AC
:101180003348006850B900F049FA3248006810B995
:10119000FFF70AFF0EE0FFF7D0FF0BE02D480068D5
:1011A00020B900F03BFAFFF7FDFB03E000F06FFB16
:1011B000FFF780FAE4E710B5022000F0F6FFB8B1BF
:1011C000022001F012F82248006808B9012000E06E
:1011D00000201F4908602048006910F0010F07D067
:1011E0000846006808B9012000E00020184908609E
:1011F00010BD10B5012000F0D8FF68B1012000F04B
:10120000F4FF1448006808B9012000E000201149EB
:10121000086000200E49086010BD00007B14AE4736
:10122000E17A643F000000000000394050000020D7
:10123000002001400000000000003E401A0C024067
:10124000000000000000004000000000000000C09E
:1012500034000020300000200000024000BFFEE704
:1012600010B504464FF48050E849086007E0E749AC
:101270000868411EE54A116008B9FFF7EFFF022137
:10128000E34801F06CFD0028F1D02146E04801F070
:101290002FFD4FF48050DD49086007E0DB49086806
:1012A000411EDA4A116008B9FFF7D8FF0121D8487A
:1012B00001F055FD0028F1D0D54801F016FDC0B26F
:1012C00010BD70B505460E461446012C01DD46F0F2
:1012D00040060821CF4801F07DF83046FFF7C0FFF7
:1012E00005E02878FFF7BCFF601E84B26D1C012C5E
:1012F000F7DA0821C74801F06BF870BD00B587B078
:101300000121080301F072FA0121084601F02AFACE
:101310000121102001F026FA0121102001F022FA0B
:101320000121102001F01EFA05221146BA4801F0F1
:101330005EF805220621B84801F059F80522072178
:10134000B54801F054F802208DF8180000208DF8FF
:101350001A0002208DF81B008DF81900202005903E
:1013600005A9AD4800F0B8FF8020059005A9AA485E
:1013700000F0B2FF4020059005A9A74800F0ACFF9F
:10138000A34801F02DFB0020ADF80000ADF80400EB
:10139000ADF80600ADF808004FF40070ADF80A0093
:1013A0000820ADF80C000020ADF80E000720ADF8C5
:1013B00010004FF48270ADF802006946944801F0C5
:1013C00035FB0121924801F012FC08200590012014
:1013D0008DF8180000208DF81A0002208DF81900F1
:1013E00005A98C4800F078FF08218A4800F0F0FF3A
:1013F0000120059000208DF818008DF81A000220B9
:101400008DF8190000208DF81B0005A9814800F017
:1014100063FF0220059005A97E4800F05DFF07B03C
:1014200000BD38B5044600200090FFF767FF6078E4
:1014300021780843E178084321790843A1780843DB
:101440000090012220216846FFF73BFF38BD70B5B0
:1014500006460C461546012D02DD44F0C00401E0AD
:1014600044F0800408216B4800F0B4FF2046FFF7E9
:10147000F7FE06E00020FFF7F3FE3070681E85B22D
:10148000761C002DF6DC0821624800F0A1FF70BD3B
:1014900038B5044600200090012221216846FFF75C
:1014A000D6FF9DF8000000F0D00000902078617811
:1014B0000843A17808439DF80010084300900122DA
:1014C00021216846FFF7FDFE38BD38B504460020EF
:1014D0000090012238216846FFF7B9FF2078617833
:1014E0000843A17808430090012238216846FFF79D
:1014F000E8FE38BD38B50446012220216846FFF7D2
:10150000A6FF9DF8000000F0BF0000909DF80000CD
:1015100020430090012220216846FFF7D2FE38BD0B
:1015200038B50446012220216846FFF790FF9DF858
:10153000000000F07F0000909DF800002043009024
:10154000012220216846FFF7BCFE38BD38B50446AD
:10155000012220216846FFF77AFF9DF8000000F085
:10156000DF0000909DF80000204300900122202120
:101570006846FFF7A6FE38BD08B50122212168465E
:10158000FFF765FF9DF8000040F040000090012249
:1015900021216846FFF795FE08BD3EB505460024AB
:1015A000012220216846FFF752FF0622292101A8C7
:1015B000FFF74DFF9DF8000010F0200002D020281A
:1015C00020D10FE000240AE001A911F8140040B274
:1015D00000EBC000400028602D1D601CC4B2032C2D
:1015E000F2DB10E000240AE001A911F8140040B277
:1015F00000EBC000C00028602D1D601CC4B2032C8D
:10160000F2DB00E000BF00BF3EBD0000580000203C
:101610000030014000100240000002401CB50121D2
:10162000082001F09FF84FF47040009001208DF8E1
:10163000040002208DF8050000208DF806008DF8CA
:10164000070069461C4800F047FE1CBD00B585B088
:101650000121084601F086F80121880301F0C6F84F
:1016600000208DF810008DF813000120039003A9CD
:10167000124800F031FE0021084601F0B9FB0120BC
:10168000019000208DF8080008208DF80900012045
:101690008DF80A0001A800F031FD06208DF8000049
:1016A00001208DF801008DF802008DF803006846D6
:1016B00000F071FA05B000BD000C024000000240CD
:1016C00000B589B040208DF8080000208DF8090091
:1016D00007208DF80A0000208DF80B008DF80C0013
:1016E00002A8FFF79EFE40208DF8040015208DF81B
:1016F000050001A8FFF7E9FE0121102001F032F8F2
:101700000121880301F072F800208DF818008DF88F
:101710001B000120059005A9294800F0DDFD0121ED
:10172000042001F065FB0220079000208DF82000C6
:1017300008208DF8210001208DF8220007A800F074
:10174000DDFC07208DF8100001208DF811008DF8C8
:1017500012008DF8130004A800F01DFA3820194972
:101760000870012222211748FFF7ABFD152015490B
:101770000870012238211348FFF7A3FDAA20114960
:10178000087001223B210F48FFF79BFD0A200D49FD
:10179000087001223C210B48FFF793FD0320094903
:1017A000087001223D210748FFF78BFD7F20054986
:1017B000087001223E210348FFF783FD09B000BDF8
:1017C000001002405C00002000B589B01D208DF89B
:1017D000200000208DF8210001208DF822008DF8D6
:1017E000230008A800F0D7F90121022000F0EDFF46
:1017F000642006905948006841F28831B0FBF1F04E
:1018000080B2ADF814000020ADF81C00ADF8160051
:1018100005A9534801F0D1FB01221146504802F0BE
:101820006DF801214E4801F051FC1C208DF810008C
:1018300000208DF8110001208DF812008DF81300A2
:1018400004A800F0A8F90121084600F0BEFF6420BA
:101850000290424800684FF47A61B0FBF1F080B228
:10186000ADF804000020ADF80C00ADF8060001A9A9
:101870004FF0804001F0A1FB01221146900702F0D9
:101880003DF80121880701F021FC09B000BD00B539
:101890008BB00121082000F065FF0121042000F039
:1018A00094FF09A800F060FD02220C212D4800F0F1
:1018B0009EFD02220D212B4800F099FD02220E21EF
:1018C000284800F094FD02220F21264800F08FFDE9
:1018D0004FF47040099002208DF8280000208DF808
:1018E0002A0003208DF8290000208DF82B0009A97B
:1018F0001C4800F0F1FC06A801F093FB4FF40070C7
:10190000ADF820004FF47A700790F020ADF8180081
:1019100006A9154801F051FB01A801F007FD0120BF
:10192000ADF806006020ADF804004FF4FA700390A3
:1019300001A90D4801F0D6FB01A90B4801F00BFCF1
:1019400001A9094801F054FC01A9074801F0B6FCBF
:101950000121054801F0BAFB0BB000BD00000020DA
:1019600000040040000C0240000800401CB50121AA
:10197000102000F0F7FE0121022000F0F3FE01200C
:101980008DF8040000208DF8060002208DF8050077
:10199000C00100906946774800F09EFC4FF400704B
:1019A00000906946734800F097FC4FF4007171484D
:1019B00000F010FD0120009069466F4800F08CFC9B
:1019C0000220009069466C4800F086FC04200090DC
:1019D0006946694800F080FC082000906946664826
:1019E00000F07AFC102000906946634800F074FC17
:1019F000202000906946604800F06EFC4020009076
:101A000069465D4800F068FC8020009069465948AE
:101A100000F062FC1CBD10B50446012003F020FB61
:101A20000CB1012000E0002002464FF480715148C3
:101A300000F0D2FC012003F013FB4FF400714D487D
:101A400000F0C6FC012003F00BFB4FF40071494885
:101A500000F0C0FC012003F003FB10BD70B504468C
:101A60000D4604F001020121434800F0B5FC64106A
:101A700004F001020221404800F0AEFC641004F0C2
:101A8000010204213C4800F0A7FC641004F00102AC
:101A90000821394800F0A0FC641004F00102102174
:101AA000354800F099FC641004F00102202132480E
:101AB00000F092FC641004F0010240212E4800F076
:101AC0008BFC641004F0010280212A4800F084FCA1
:101AD0002846FFF7A0FF70BD10B5FFF747FF0021B4
:101AE0003020FFF7BBFF00213820FFF7B7FF0021B0
:101AF0000C20FFF7B3FF10BD10B500210120FFF748
:101B0000ADFF10BD70B504460D46002606E02078F6
:101B10000121FFF7A3FF641C701CC6B2AE42F6DBC6
:101B200070BD10B5044644F080000021FFF796FF19
:101B300010BD10B52820FFF7F4FF10BD70B50546A5
:101B40000C4607210DA0FFF7DDFF06212846FFF711
:101B5000D9FFFFF7EEFF07210AA0FFF7D3FF062109
:101B60002046FFF7CFFF0020FFF7DBFF642003F0E4
:101B700077FA70BD0004024000100240506974639F
:101B8000683A2000526F6C6C203A200033490143C0
:101B9000334A1160704770B5002100230F22C478CA
:101BA00024B32F4C246804F4E064C4F5E064C4F367
:101BB0000721C1F10404E3B20A4144789C40E1B238
:101BC0008478144021430C07210E264C057861557A
:101BD000047804F01F050124AC4005786D114FF026
:101BE000E02606EB8505C5F8004109E0047804F01D
:101BF0001F040125A5401C4C0678761144F8265098
:101C000070BD1A4A0A400243154B1B1F1A607047E9
:101C100039B1134A121D12680243114B1B1D1A6081
:101C200006E00F4A121D126882430D4B1B1D1A60FD
:101C30007047042808D14FF0E021096941F0040100
:101C40004FF0E022116107E04FF0E021096921F037
:101C500004014FF0E0221161704700000000FA0516
:101C60000CED00E000E400E080E100E080FFFF1FF9
:101C700010B50121080200F021FE00214FF4807010
:101C800000F01CFE10BD30B5024600200023506855
:101C9000F84C20400D790C6844EA0524204350603C
:101CA0009068F54C2040D1E903542C438D682C43B7
:101CB0004D7944EA450420439060D06A20F47000D6
:101CC0000C7D641EE4B2234340EA0350D06230BD71
:101CD00000210160017141718160C16001610121D8
:101CE000017570470021E54A1168E54A01EA0201E1
:101CF000D0E9002342EA0302836842EA0302C36890
:101D000042EA030242EA0101DE4AC2F804137047C4
:101D10000021016041608160C160704721B182682B
:101D200042F00102826003E0826822F001028260D8
:101D300070470A4600214168D34B19401143416066
:101D400070474162826270470A460021416821F073
:101D50001F0111434160704738B1C849096841F417
:101D60000001C84AC2F8041306E0C449096821F416
:101D70000001C44AC2F80413704738B1BF4909686A
:101D800041F48001BF4AC2F8041306E0BB49096868
:101D900021F48001BB4AC2F804137047F0B5044631
:101DA0000D4600200021092D11DDE068A5F10A068D
:101DB00006EB4607072606FA07F18843A5F10A064F
:101DC00006EB460603FA06F10843E0600CE02069E2
:101DD00005EB4507072606FA07F1884305EB45069C
:101DE00003FA06F108432061072A0FDA606B561EDA
:101DF00006EB86071F2606FA07F18843561E06EBF8
:101E0000860605FA06F10843606322E00D2A0FDA20
:101E1000206BD61F06EB86071F2606FA07F18843BC
:101E2000D61F06EB860605FA06F10843206310E08C
:101E3000E06AA2F10D0606EB86071F2606FA07F1F7
:101E40008843A2F10D0606EB860605FA06F1084363
:101E5000E062F0BD816841F08041816070470146D9
:101E600000208A6812F4800F01D0012000E00020D9
:101E7000704721B1826842F48062826003E0826828
:101E800022F480628260704721B1826842F00202CF
:101E9000826003E0826822F002028260704710B51F
:101EA0000A4600210023416821F46041531E41EAA3
:101EB0004331416010BD21B1426842F4006242608A
:101EC00003E0426822F40062426070470146C86C39
:101ED00080B270476D480068704721B1826842F453
:101EE0008072826003E0826822F4807282607047B0
:101EF00021B1826842F40072826003E0826822F4B9
:101F000000728260704738B15C49096841F4005141
:101F10005C4AC2F8041306E05849096821F40051EC
:101F2000584AC2F804137047F0B50446154600201D
:101F300000220026092911DDE068A1F10A0707EB5C
:101F4000470C072707FA0CF29043A1F10A0707EBA9
:101F5000470703FA07F21043E0600CE0206901EB49
:101F6000410C072707FA0CF2904301EB410703FAF3
:101F700007F210432061A06BC0F30156EF1C06F17D
:101F8000010CA7EB0C0707EB870C1F2707FA0CF2D5
:101F90009043EF1C06F1010CA7EB0C0707EB87073A
:101FA00001FA07F21043A063F0BD10B50A46002104
:101FB0000023816B21F44011531E41EA03518163D8
:101FC00010BD08B5002300930090009B0B440093C4
:101FD000009B1A6008BD0A460021816821F4702127
:101FE0001143816070470A460021816821F4401145
:101FF000114381607047816841F4800181607047BE
:10200000014600208A6812F4800F01D0012000E010
:102010000020704721B1426842F48062426003E0D0
:10202000426822F480624260704721B1426842F403
:102030008052426003E0426822F48052426070475E
:1020400008B5024600200090009201F12800009B94
:10205000184400900098006880B208BD10B50B4687
:102060000021D9B2012404FA01F18AB144680C4379
:10207000446010E0FFFEFFFCFDF7FFC004230140B9
:10208000E030FCFF00200140FFFD3FFF082301403E
:1020900044688C43446010BD0246002013680B4224
:1020A00001D0012000E000207047CA430260704761
:1020B00070B502460020002300240B12556801264B
:1020C0008E4005EA060415681D4202D00CB10120BD
:1020D00000E0002070BD00220A12D3430360704765
:1020E000002044490860091D0860091D0860091D99
:1020F000086041483F4914310860704700213D495C
:102100008279002A3AD00A46126803689A430B463D
:102110001A600A1D126803689A430B1D1A6002793F
:1021200011440A6803681A430A60324A0832126886
:1021300003689A432F4B08331A601A1D126803680C
:102140009A432C4B0C331A604279102A0ED11A1F75
:10215000126803681A43274B08331A601A1D126865
:1021600003681A43234B0C331A600DE0214942796E
:1021700011440A6803681A430A6005E002791144B1
:102180000A6803689A430A60704700210160017180
:102190000C21417100218171704716491031096885
:1021A0000143144A10321160704701460020114A61
:1021B000143212680A4201D0012000E0002070476A
:1021C0000C49143108607047014600200022094B79
:1021D0001B6803EA0102074B14331B680B4202D051
:1021E0000AB1012000E00020704702491431086064
:1021F00070470000003C0140FFFF7F0010B504461F
:102200008C48844208D10121084600F000FB0021DF
:10221000012000F0FCFA5EE08748844208D10121E9
:10222000022000F0F4FA0021022000F0F0FA52E05F
:102230008248844208D10121042000F0E8FA0021FC
:10224000042000F0E4FA46E07D48844208D10121F0
:10225000082000F0DCFA0021082000F0D8FA3AE06B
:102260007848844208D10121102000F0D0FA0021E2
:10227000102000F0CCFA2EE07348844208D10121EE
:10228000202000F0C4FA0021202000F0C0FA22E053
:102290006E48844208D10121402000F0B8FA0021A4
:1022A000402000F0B4FA16E06948844208D10121C8
:1022B000802000F0ACFA0021802000F0A8FA0AE0AB
:1022C0006448844207D10121801500F0A0FA002162
:1022D000A01500F09CFA10BDF0B50A4600210023BD
:1022E000002400BF3DE0012505FA01F3156805EA69
:1022F00003049C4234D105684F000326BE40B54319
:10230000056015794E00B5400668354305601579BE
:10231000012D02D01579022D16D185684F000326B4
:10232000BE40B543856055794E00B540866835435B
:102330008560456801268E40B543456045689679BD
:102340008E40B6B235434560C5684F000326BE4097
:10235000B543C560D5794E00B540C6683543C56004
:10236000491C1029BFD3F0BD4FF6FF710160002159
:10237000017141718171C171704708B54FF48032AC
:102380000092009A0A430092009AC261C161009AC9
:10239000C261C2690092C269009208BD0246002073
:1023A00013690B4201D0012000E000207047014674
:1023B000086980B270470246002053690B4201D081
:1023C000012000E0002070470146486980B2704754
:1023D00001837047418370470AB1018300E0418364
:1023E00070474161704742694A4042617047F0B5A9
:1023F000002300244D07ED0E02FA05F3CE1000F184
:10240000200555F826504E07F70E0F26BE40B5435F
:10241000CF1000F1200646F82750CE1000F120051D
:1024200055F8265045EA0304CE1000F1200545F882
:102430002640F0BD000002400004024000080240B7
:10244000000C02400010024000140240001802403C
:10245000001C024000200240FA48006840F00100E1
:10246000F84908600020F74908310860F54800681D
:10247000F5490840F3490860F448091D0860081F41
:10248000006820F48020091F08600020ED490C310D
:10249000086070470021EB4A921C117011460870C9
:1024A000704710B501460022002300204A11012A7E
:1024B00002D1E44C236808E0022A03D1E14C7034D5
:1024C000236802E0DF4C7434236801F01F0201240A
:1024D00094401C4201D0012000E0002010BD38B51E
:1024E000002000900024002500BF3120FFF7D9FF15
:1024F00005460098401C00900098B0F5A06F01D0F0
:10250000002DF2D03120FFF7CCFF08B1012400E00C
:102510000024204638BD01460020CA4A106820F039
:10252000F80040EAC10010607047C9490860704770
:102530000021C44A703211701170012802D00428A1
:102540000AD104E00121BF4A7032117005E0052173
:10255000BC4A7032117000E000BF00BF7047BD4937
:102560000860704770B5049C41EA82150126C6EBED
:10257000530645EA0645054345EA0465B14E361D56
:10258000356070BDB24908667047820142EA017247
:10259000AC4B84331A607047AD4988667047AC49CC
:1025A000C864704702460020A64B0833186820F024
:1025B000EC6042EA01031843A24B083318607047ED
:1025C000024600209F4B0833186820F0784042EA0A
:1025D000010318439B4B08331860704701460020E5
:1025E000984A0832106820F00300084310607047D2
:1025F00094480830006800F00C0070470146002045
:10260000904A0832106820F0F000084310607047CC
:10261000014600208B4A0832106820F4E05008433D
:102620001060704701460020864A0832106820F486
:10263000604040EAC10010607047F0B50021002200
:1026400000240225002602237E4F08373F6807F04A
:102650000C0121B1042905D0082937D105E07E4FAE
:10266000076036E07D4F076033E0764F3F1D3F68DF
:10267000C7F38056734F3F1D3F6807F03F036EB1AD
:10268000764FB7FBF3F7DFF8BCC10CF1040CDCF8B4
:1026900000C0CCF3881C07FB0CF40CE06E4FB7FBBA
:1026A000F3F7DFF8A0C10CF1040CDCF800C0CCF3A8
:1026B000881C07FB0CF4634F3F1D3F68C7F30147BD
:1026C0007F1C7D00B4FBF5F7076002E0624F0760F6
:1026D00000BF00BF5B4F08373F6807F0F0010909F2
:1026E0005F4F7A5C0768D7404760564F08373F68AE
:1026F00007F4E051890A5A4F7A5C4768D7408760EF
:10270000504F08373F6807F46041490B544F7A5CDB
:102710004768D740C760F0BD002100F44072B2F5B1
:10272000407F0AD1474A0832116821F4F8114D4A16
:1027300002401143434A08321160424A7032126823
:10274000C0F30B031A433F4B70331A607047414983
:102750004439086070473F49403908607047424932
:102760000860704739B1374A303212680243354B3E
:1027700030331A6006E0334A303212688243314BFC
:1027800030331A60704739B12E4A3432126802432E
:102790002C4B34331A6006E02A4A343212688243E2
:1027A000284B34331A60704739B1264A38321268E0
:1027B0000243244B38331A6006E0224A383212684A
:1027C0008243204B38331A60704739B11D4A40327A
:1027D000126802431B4B40331A6006E0194A40322C
:1027E00012688243174B40331A60704739B1154A5B
:1027F000443212680243134B44331A6006E0114A14
:102800004432126882430F4B44331A60704739B127
:102810000C4A1032126802430A4B10331A6006E069
:10282000084A103212688243064B10331A60704710
:10283000E1B1044A143212680243024B14331A60A5
:1028400019E0000000380240FFFFF6FE10300024BF
:1028500000004742800E47420024F40000127A0034
:102860005D000020FFFCFF0F5C0147425B4A1268DD
:1028700082435A4B1A60704739B1584A121D126888
:102880000243564B1B1D1A6006E0544A121D126883
:102890008243524B1B1D1A60704739B14F4A0C32AC
:1028A000126802434D4B0C331A6006E04B4A0C325F
:1028B00012688243494B0C331A60704739B1474A5A
:1028C000103212680243454B10331A6006E0434A47
:1028D000103212688243414B10331A60704739B18D
:1028E0003E4A3C32126802433C4B3C331A6006E0DD
:1028F0003A4A3C3212688243384B3C331A60704784
:1029000039B1364A403212680243344B40331A60C0
:1029100006E0324A403212688243304B40331A603C
:10292000704739B12D4A4432126802432B4B44336D
:102930001A6006E0294A443212688243274B443326
:102940001A60704739B1254A4C3212680243234B52
:102950004C331A6006E0214A4C32126882431F4B06
:102960004C331A60704739B11C4A50321268024326
:102970001A4B50331A6006E0184A503212688243EC
:10298000164B50331A60704739B1144AD21F12786F
:102990000243124BDB1F1A7006E0104AD21F127856
:1029A00082430E4BDB1F1A7070470C486030006882
:1029B00040F080700949603108607047014600208E
:1029C000064A083A12680A4201D0012000E00020BD
:1029D00070470249891F0870704700001438024090
:1029E00010B50446F648844208D101218014FFF74F
:1029F00065FF0021A014FFF761FF16E0F148844253
:102A000008D101210014FFF748FF00212014FFF72F
:102A100044FF0AE0EC48844207D10121C013FFF7CC
:102A20003CFF0021E013FFF738FF10BD10B5002276
:102A3000028802F441520B884C8823438C8823433C
:102A4000CC8823430C8923434C8923438C8923431B
:102A5000CC8923431A430280838B4FF2FF742340B7
:102A600083830B8A038210BD2DE9F04F00250223DA
:102A70000024012700220026944690469146B0F893
:102A80001CA04FF2400B0AEA0B0AA0F81CA04FF062
:102A9000020AA0F820A0858BD1F808A0BAF1020F95
:102AA00001D100BF6AE0B1F804A0BAF1000F01D172
:102AB000012700E00227DFF814A3DAF800A01AF4D7
:102AC000000F09D0DFF804A3DAF800A02AF4000A06
:102AD000DFF8F8B2CBF800A0DFF8F0A20AF17C0A28
:102AE000DAF800A0CAF38818DFF8E0A20AF17C0A3D
:102AF000DAF800A0CAF30279DFF8D0A2AAF1040A3A
:102B0000DAF800A00AF03F0CDFF8C4A2BAFBFCFA26
:102B10000AFB08FABAFBF9F6B1F806A0BAF5007F8D
:102B20000ED14FEA162A0AEB8A0A4FEA4A0AD1F86E
:102B300008B0BAFBFBFA0AF1050A1FFA8AF20FE0A5
:102B40004FEA471AB6FBFAFA0AEB8A0A4FEA4A0A30
:102B5000D1F808B0BAFBFBFA0AF1050A1FFA8AF2AB
:102B60004FF00A0AB2FBFAF202F00104A2EB040AE7
:102B7000CAF34F034FF6FF7A0AEA0424022B01DB63
:102B8000FF2B01DD02230024B1F806A04AEA040A63
:102B90004AEA030AA0F820A0B1F804A0B1F80CB0EA
:102BA0004AEA0B0AB1F802B04AEA0B0AB1F800B0DF
:102BB0004AEA0B0A4AF4006A4AEA05058583BDE839
:102BC000F08F0021018041808180C180018141819D
:102BD0008181C181072101827047002101804180EC
:102BE0008180C1800221816000218181704721B1F3
:102BF000028842F04002028004E002884FF6BF7370
:102C00001A400280704721B1828B42F48062828335
:102C100004E0828B4FF6FF331A40828370470288AC
:102C20004FF2FF731A40028002880A430280704705
:102C3000B1F5804F04D1028842F48042028004E062
:102C400002884BF6FF731A4002807047A1F57E425E
:102C5000FF3A04D0028842F48072028004E00288C5
:102C60004FF6FF631A400280704721B1828842F01C
:102C70000402828004E082884FF6FB731A4082804F
:102C8000704721B1828842F01002828004E082887D
:102C90004FF6EF731A408280704730B50022002350
:102CA000848B4FF240052C40848302240484828B61
:102CB0000C88B4F5007F01D00C8814B94FF48073F0
:102CC00008E00C88B4F5407F03D00C88B4F5807F11
:102CD00000D100238C888D892C434D882C431C43C4
:102CE00044F400642243828330BD014688897047E2
:102CF0008181704721B1028842F40052028004E0D1
:102D000002884DF6FF731A4002807047018841F433
:102D100080510180704702460020012901D0108BAC
:102D200000E0908A70470146088A70471AB183888C
:102D30000B43838002E083888B438380704730B5E8
:102D4000002400230C110125A540ABB21AB18588DF
:102D50001D43858002E085889D43858030BD024605
:102D6000002013890B4201D0012000E000207047B1
:102D7000CA4302817047F0B50246002000240023B8
:102D8000002501F00F070126BE40B4B20B11012649
:102D90009E40B3B2968806EA03051689264202D001
:102DA0000DB1012000E00020F0BD10B5002201F0BF
:102DB0000F040123A3409AB2D343038110BD000046
:102DC0000030014000380040003C0040083802401C
:102DD00000127A0010B501218803FFF76FFD002172
:102DE0004FF48040FFF76AFD10BD1A490860704734
:102DF00030B500228B071C0F0F2303FA04F2154B8A
:102E000008338C1053F824309343124C08348D103F
:102E100044F8253023468C1053F824308C07240FB7
:102E200000FA04F423430B4C08348D1044F8253089
:102E300030BD0949086070470849086070470020A4
:102E400004492031096811F4807F01D0012000E09D
:102E50000020704700380140DC0027420004274270
:102E600010B50446FE48844208D101210846FFF708
:102E700025FD00210120FFF721FD9DE0B4F1804FE9
:102E800008D101210846FFF708FD00210120FFF7C6
:102E900004FD91E0F348844208D101210220FFF7AC
:102EA000FCFC00210220FFF7F8FC85E0EE4884429C
:102EB00008D101210420FFF7F0FC00210420FFF7D6
:102EC000ECFC79E0E948844208D101210820FFF7B1
:102ED000E4FC00210820FFF7E0FC6DE0E4488442B8
:102EE00008D101211020FFF7D8FC00211020FFF7A6
:102EF000D4FC61E0DF48844208D101212020FFF7A3
:102F0000CCFC00212020FFF7C8FC55E0DA488442C1
:102F100008D101210220FFF7D1FC00210220FFF798
:102F2000CDFC49E0D548844209D101210804FFF7CE
:102F3000C5FC00214FF48030FFF7C0FC3CE0D048D6
:102F4000844209D101214804FFF7B8FC00214FF465
:102F50000030FFF7B3FC2FE0CA48844209D10121B9
:102F60008804FFF7ABFC00214FF48020FFF7A6FC9C
:102F700022E0C548844208D101214020FFF78DFCA2
:102F800000214020FFF789FC16E0C048844208D1A8
:102F900001218020FFF781FC00218020FFF77DFCCC
:102FA0000AE0BB48844207D101218015FFF775FC78
:102FB0000021A015FFF771FC10BD00220288A84B6C
:102FC00098420ED0AC4B98420BD0B0F1804F08D055
:102FD000A44B984205D0A44B984202D0A34B9842F0
:102FE00004D14FF68F731A404B881A43A04B984276
:102FF00007D0A04B984204D04FF6FF431A400B89EC
:103000001A4302804B68C3620B880385944B984235
:1030100002D0994B984201D18B7A03860123838297
:1030200070474FF0FF3141600021018001814180F4
:10303000817270470185828270470A4600210188AB
:103040004FF68F73194011430180704741627047FA
:10305000C16270470146486A70470146088D704753
:1030600021B1028842F00202028004E002884FF699
:10307000FD731A400280704721B1028842F00402B9
:10308000028004E002884FF6FB731A40028070470A
:1030900021B1028842F08002028004E002884FF6EB
:1030A0007F731A400280704702884FF6F7731A4008
:1030B000028002880A430280704702884FF6FF436D
:1030C0001A40028002880A430280704721B10288B8
:1030D00042F00102028004E002884FF6FE731A40BB
:1030E0000280704770B5002400220023058C4FF643
:1030F000FE7635400584028C8388048B4FF68F75ED
:103100002C40B51E2C400D882C43751E2A408D89FD
:103110002A434D882A43524DA84202D0564DA84218
:1031200013D14FF6F7752A40CD892A434FF6FB7528
:103130002A408D882A434FF6FF652B404FF6FF55F6
:103140002B400D8A2B434D8A2B43838004838D684B
:103150004563028470BD70B5002400220023058CF5
:103160004FF6EF7635400584028C8388048B48F651
:10317000FF752C404FF6FF452C400D884FF6FF762B
:1031800006EA05252C434FF6DF752A408D8906EAAD
:1031900005152A434D8806EA05152A43304DA842F5
:1031A00002D0354DA8421DD14FF67F752A40CD89FA
:1031B0004FF6FF7606EA05152A434FF6BF752A40FB
:1031C0008D8806EA05152A434FF6FF352B404FF24E
:1031D000FF752B400D8A06EA85052B434D8A06EACA
:1031E00085052B43838004838D688563028470BDCD
:1031F00070B5002400220023058C4FF6FF66354091
:103200000584028C8388848B4FF68F752C404FF693
:10321000FC752C400D882C434FF6FF552A408D89B4
:103220004FF6FF7606EA05252A434D8806EA05256E
:103230002A430B4DA84202D00F4DA84238D14FF27D
:10324000FF752A40CD894FF6FF7606EA05252A4309
:103250004FF6FF352A408D8806EA05252A4319E0F6
:10326000000001400004004000080040000C004045
:1032700000100040001400400004014000400140E4
:10328000004401400048014000180040001C00407C
:10329000002000404EF6FF752B404DF6FF752B4089
:1032A0000D8A06EA05152B434D8A06EA05152B43C0
:1032B000838084838D68C563028470BD70B50022ED
:1032C00000230024058C4EF6FF7635400584038CE0
:1032D0008488828B48F6FF752A404FF6FF452A40C6
:1032E0000D884FF6FF7606EA05252A434DF6FF7551
:1032F0002B408D8906EA05352B434D8806EA0535B6
:103300002B43FE4DA84202D0FD4DA84208D14BF6FA
:10331000FF752C400D8A4FF6FF7606EA85152C4383
:10332000848082838D680564038470BD00210180E0
:103330004180818081608181C181018241827047A9
:1033400070B50346002000241846183001258D4032
:10335000ACB21D8CA5431D8409B108290AD100EB2C
:10336000610005684FF68F763540056005681543A6
:1033700005600FE00D1FC5F34E052844056848F6AB
:10338000FF763540056005684FF6FF7606EA0226AF
:103390003543056070BD4163704781637047C16309
:1033A0007047016470470A460021018B4FF68F7306
:1033B00019401143018370470A460021018B48F6EA
:1033C000FF7319404FF6FF7303EA02231943018389
:1033D00070470A460021818B4FF68F7319401143C5
:1033E000818370470A460021818B48F6FF7319409C
:1033F0004FF6FF7303EA02231943818370470A469D
:103400000021018B4FF6F773194011430183704778
:103410000A460021018B4FF2FF7319404FF6FF73EC
:1034200003EA02231943018370470A460021818B76
:103430004FF6F77319401143818370470A46002104
:10344000818B4FF2FF7319404FF6FF7303EA02239B
:103450001943818370470A460021018B4FF6FB73A5
:1034600019401143018370470A460021018B4FF632
:10347000FF3319404FF6FF7303EA02231943018318
:1034800070470A460021818B4FF6FB7319401143A8
:10349000818370470A460021818B4FF6FF33194024
:1034A0004FF6FF7303EA02231943818370470A46EC
:1034B0000021018B4FF67F73194011430183704740
:1034C0000A460021018BC1F30E014FF6FF7303EA98
:1034D00002231943018370470A460021818B4FF66E
:1034E0007F7319401143818370470A460021818B05
:1034F000C1F30E014FF6FF7303EA022319438183E0
:1035000070470A460021018C4FF6FD7319401143A4
:10351000018470470A460021018C4FF6F773194069
:103520001143018470470A460021018C4FF6DF7376
:1035300019404FF6FF7303EA0213194301847047E1
:103540000A460021018C4FF67F7319404FF6FF7336
:1035500003EA02131943018470470A460021018CD3
:103560004FF6FF5319404FF6FF7303EA0223194346
:10357000018470470A460021018C4FF2FF73194005
:103580004FF6FF7303EA02231943018470470A468A
:103590000021018C4DF6FF7319404FF6FF7303EACB
:1035A000023319430184704730B5002301248C4055
:1035B000A3B2048C9C430484048C02FA01F5ADB2DE
:1035C0002C43048430BD30B5002304248C40A3B2C6
:1035D000048C9C430484048C02FA01F5ADB22C43A4
:1035E000048430BD828B4FF2FF331A408283828B7A
:1035F0004FF6FF7303EA01231A4382837047F0B545
:103600000C461546002100220026078C4EF6FF7C52
:1036100007EA0C070784818B028C4FF6FF7707EAD5
:10362000043640F6FF4739404FF6FF7707EA052793
:1036300039434FF6FF7707EA0337394345F6FF77FB
:103640003A4046F480573A4381830284F0BD828B2E
:103650004FF6F3731A408283828B0A43828370474A
:10366000F0B50C461546002100220026078C4FF6C7
:10367000FF6C07EA0C070784818B028C4FF6FF77FB
:1036800007EA04264FF60C7739404FF6FF7707EA32
:1036900003172F4339434FF2FF573A4046F48077E0
:1036A0003A4381830284F0BD028B4FF2FF331A400C
:1036B0000283028B4FF6FF7303EA01231A4302834E
:1036C0007047F0B50C461546002100220026078CF5
:1036D0004FF6EF7C07EA0C070784018B028C4FF64C
:1036E000FF7707EA041640F6FF4739404FF6FF77A9
:1036F00007EA033739434FF6FF7703E00000014044
:103700000004014007EA052739434FF65F773A4046
:1037100046F010073A4301830284F0BD028B4FF656
:10372000F3731A400283028B0A4302837047F0B599
:103730000C46154600210022068C4FF6FE773E40CF
:103740000684018B028C4FF60C7631407E1C06EA13
:1037500003162E4331434FF6F576324044F001060E
:10376000324301830284F0BD70B505460C462088C3
:1037700050B92389A28861882846FFF7D8FFE188DD
:103780002846FFF7CBFF25E0208804280AD12389AB
:10379000A28861882846FFF794FFE1882846FFF752
:1037A00083FF17E0208808280AD12389A28861882E
:1037B0002846FFF755FFE1882846FFF748FF09E054
:1037C0002389A28861882846FFF719FFE1882846E7
:1037D000FFF708FF70BD0021018041800121818039
:1037E0000021C180018170472DE9F04105460C465A
:1037F00000260127608808B9022600E00026A0887C
:10380000012801D1022700E001272088A0B92389DF
:10381000A28861882846FFF78AFFE1882846FFF7DB
:103820007DFF23893A4631462846FFF74AFFE18863
:103830002846FFF739FF13E02389A28861882846CC
:10384000FFF73FFFE1882846FFF72EFF23893A461E
:1038500031462846FFF76BFFE1882846FFF75EFFF9
:10386000BDE8F0810146486B70470146886B7047A0
:103870000146C86B70470146086C70470A884B8840
:103880001A438B881A43CB881A430B891A434B89F6
:103890001A438B891A43A0F8442070470021018005
:1038A00041808180C180018141818181704731B136
:1038B000B0F8442042F40042A0F8442005E0B0F8FB
:1038C0004420C2F30E02A0F84420704721B1828840
:1038D00042F00402828004E082884FF6FB731A40B3
:1038E0008280704721B1828842F00102828004E028
:1038F00082884FF6FE731A40828070471AB183891E
:103900000B43838102E083898B43838170478182EB
:10391000704702460020138A0B4201D0012000E0CC
:1039200000207047CA430282704730B5024600202B
:1039300000230024158A05EA0103958905EA01049C
:1039400013B10CB1012000E0002030BDCA43028257
:10395000704741EA0203A0F8483070471AB18389E2
:103960000B43838102E083898B438381704721B1BC
:10397000828842F00802828004E082884FF6F77362
:103980001A408280704701894FF6F8721140018118
:1039900070470A46002101894FF68F731940114381
:1039A0000181704730B504460D4629462046FFF791
:1039B000F0FF208940F00700208130BD2DE9F04163
:1039C00004460D4616461F46602D06D13B46012291
:1039D00031462046FFF775FE05E03B4601223146A1
:1039E0002046FFF7A4FE29462046FFF7D2FF208994
:1039F00040F007002081BDE8F08130B50C46002181
:103A00000189C9B24FF6FF7505EA03251543254321
:103A10002943018130BD2DE9F04105460E46174688
:103A20009846002443463A4631462846FFF7E5FFCC
:103A30002C894FF6F870044044F007044FF68F705D
:103A4000044044F070042C81BDE8F081F0B50446D8
:103A50000D4616461F463B46324629462046FFF78E
:103A6000CCFF208940F480402081F0BD82884FF651
:103A70008F731A40828082880A438280704702894D
:103A80004FF6F8731A40028102890A430281704797
:103A900002894FF67F731A40028102890A4302812C
:103AA0007047F0B50C4615461E4600210022002343
:103AB0000189028B038C4FF6F877394021434FF68A
:103AC000FC473A4040F201173A434FF6DD773B405E
:103AD0004FF6FF7707EA06172F433B430181028326
:103AE0000384F0BD21B1828842F08002828004E02C
:103AF00082884FF67F731A4082807047A0F850107A
:103B00007047D2B201E000F8012B491EFBD270478A
:103B10000022F6E710B513460A4604461946FFF799
:103B2000F0FF204610BD2DE9FE4F804681EA0300DC
:103B3000C00F0C46009021F0004123F00045B8EB87
:103B40000200A94105D24046214690461C460B463C
:103B5000024623F00040104304D14046214603B002
:103B6000BDE8F08F270DC7F30A00C3F30A51029096
:103B7000401A0190402866DAC3F3130040F4801B1A
:103B80000098924620B10023D2EB030A63EB0B0BA3
:103B900001985946C0F14002504600F0CCF9064663
:103BA0000D4650465946019A00F0D4F910EB080032
:103BB0006141002487EA115284EAE7731A433BD03B
:103BC000009A3AB3019A012A4FEA075210DC001B0F
:103BD00061EB02014FF0004202EA0752CDE90042D8
:103BE000001C41F5801132462B4600F0D2F9B6E7B1
:103BF000001B61EB0201001C41F5801300185B41C2
:103C00002018A2F5001747EB030140EAD570B6195A
:103C10006D4111E06D084FEA360645EAC0754FEA7E
:103C20000752001B61EB0201001C41F5801149089D
:103C30004FEA30000019514132462B4603B0BDE82F
:103C4000F04F00F099B90098012240000023D0EB1A
:103C5000020263EBE073009821464FEAE074B8EB90
:103C6000000061EB0401E9E783F000435BE781F0CA
:103C7000004158E72DE9FE4F81EA030404F00044B7
:103C800021F0004100944FF0000B23F0004350EA74
:103C9000010402D052EA030404D10020014603B01B
:103CA000BDE8F08FC3F30A54C1F30A552C44A4F2C3
:103CB000F3340194A0FB0254C1F3130141F48011C9
:103CC000C3F3130343F4801301FB024400FB034ED0
:103CD000840A970A44EA815447EA8357A4FB076899
:103CE00002958D0A05FB07854FEA932C04FB0C54C3
:103CF0002705029D4FEA065847EA1637B5EB080537
:103D00006EEB070C870E920E47EA811742EA831288
:103D1000A7FB0201B6EB0B0164EB00042B0D43EA99
:103D20000C335E1844EB1C50DA465146E7FB0201A7
:103D3000C5F313044FEA0B3343EA14534FEA04323A
:103D4000019C43EA0603A4F10C040294009CCDE913
:103D500000B400F01EF9A2E72DE9F04D81EA03045A
:103D600004F0004B21F0004514464FF0000A23F008
:103D7000004150EA050220D054EA01021DD0C5F3EB
:103D80000A570246C5F31303C1F31300C1F30A56E1
:103D900040F4801543F48013A7EB0608101BD646A9
:103DA00008F2FD3873EB050002D308F1010801E0C9
:103DB00092185B41B8F1000F03DA00200146BDE81C
:103DC000F08D00204FF48011064684460EE0171B4C
:103DD00073EB050705D3121B63EB050306434CEA9F
:103DE000010C49084FEA300092185B4150EA010784
:103DF000EDD152EA030012D082EA040083EA050101
:103E0000084303D100224FF0004308E0101BAB41F0
:103E100002D20122002302E06FF0010253101AEBDC
:103E200006004CEB085110EB0A0041EB0B01BDE81A
:103E3000F04D00F0A1B80EB5C10F80EAE070084463
:103E4000CA07002140F233438DE80E000A460B46B4
:103E500000F09FF803B000BD30B5002904DB4FF03F
:103E60000044404264EB0101002B04DB4FF00044AE
:103E7000524264EB03038B4208BF824230BD000014
:103E800030B5002904DB4FF00044404264EB0101EF
:103E9000002B04DB4FF00044524264EB03039942D1
:103EA00008BF904230BD000030B50B4601460020EF
:103EB0002022012409E021FA02F59D4205D303FAEC
:103EC00002F5491B04FA02F52844151EA2F101026D
:103ED000F1DC30BD2DE9F05F0546002092469B469F
:103EE00088460646814640241BE028464146474610
:103EF000224600F01BF953465A46C01A914110D38E
:103F000011461846224600F016F82D1A67EB0108F4
:103F10004F4622460120002100F00DF817EB000962
:103F20004E41201EA4F10104DFDC484631462A46FA
:103F30004346BDE8F09F202A04DB203A00FA02F154
:103F4000002070479140C2F1200320FA03F3194387
:103F500090407047202A06DBCB17203A41FA02F046
:103F600043EAE07306E041FA02F3D040C2F12002D6
:103F7000914008431946704710B5002B08DA401CE1
:103F800041F1000192185B411A4301D120F0010078
:103F900010BD2DE9F04D92469B4611B1B1FA81F268
:103FA00002E0B0FA80F220329046FFF7C4FF0446E8
:103FB0000F4640EA0A0041EA0B0153465A460843BD
:103FC00003D120463946BDE8F08D114653EA010081
:103FD00015D0C8F14002504600F0A8F805460E463C
:103FE000504659464246FFF7A6FF084301D001203C
:103FF00000E00020054346EAE0762C4337430A9868
:104000004FEA4453A0EB08004FEAD4240A304FF0A3
:10401000000244EA47544FEAD72502D50020014662
:10402000D1E7010510196941DDE908450019694129
:10403000BDE8F04DA0E72DE9F04D00231A461B1A0C
:104040008A4103DB00200146BDE8F08DC1F30A522E
:10405000C1F3130141F480154FF0000BD10702D1D9
:1040600000186D41521E0027044640F2FF113846E9
:1040700001EB620A3E468046024600204FF4801162
:1040800000F054F8C2197141BB1846EB0100B4EBC3
:10409000030C75EB000C04D3E41A65EB000517461E
:1040A0000E46241908F101006D4180463428E3DDF5
:1040B000F91946EB0600091BA84103D24FF0FF3265
:1040C000134601E0002213461BEB070046EB0A51A2
:1040D000BDE8F04DFFF750BFC1F30A52C1F3130121
:1040E00040F2FF3341F480119A4202DA0020014687
:1040F000704740F233439A42A2F2334202DC52420A
:1041000000F014B8FFF717BF064C074D06E0E06853
:1041100040F0010394E8070098471034AC42F6D30E
:10412000FCF736F8A0600008D0600008202A04DB05
:10413000203A21FA02F00021704721FA02F3D04020
:10414000C2F1200291400843194670470000000068
:104150000FB41CB50A46521ECDE9000207A9054B53
:104160006A46069800F048FB009A002111701CBCBA
:104170005DF814FB3F4F000803B40198410000981C
:1041800050EAC12018BF04204A0D18BF40F00100BA
:1041900040F2FF72B2EB515F08BF40F0020001280D
:1041A00008BF052002B0704770B59F482DED020B87
:1041B0002DED068B079D25F00044A0421DDC9B4899
:1041C000844202DC0FD1069868B19DED060B53ECDA
:1041D000102B51EC100BFFF7A6FCBDEC068B02B0C8
:1041E00041EC100B70BD002DCCBF9FED910B9FEDEE
:1041F000920BBDEC068B02B070BD9148A04215DD5C
:104200009048A042D8BF4FF0FF3440DD9DED060B33
:1042100051EC100BFFF7B0FF042808BF00F0F4F9D1
:104220009DED060BBDEC068B02B070BD9DED060B3F
:1042300051EC100B00F0BEFE41EC100B82488DEDEE
:10424000060B9FED838BA0423CDD8348A0421FDD1F
:1042500000249FED839B51EC100B53EC192BFFF7BF
:1042600062FC9DED060B41EC1A0B53EC192B51EC43
:10427000100BFFF7FFFC53EC182BFFF7F5FC53EC8A
:104280001A2BFFF769FD41EC100B8DED060B49E091
:10429000012453EC182B51EC100BFFF744FC9DED5F
:1042A000060B41EC190B53EC182B51EC100BFFF7DC
:1042B000DBFC53EC192BFFF74FFD41EC100B8DEDA0
:1042C000060B2FE06848A0421FDD02249FED689B8B
:1042D00051EC100B53EC192BFFF7CCFC53EC182BC3
:1042E000FFF721FC9DED060B41EC180B53EC192B4D
:1042F00051EC100BFFF7B8FC53EC182BFFF72CFD1B
:1043000041EC100B8DED060B0CE053EC102B03244D
:104310009FED590B51EC100BFFF71EFD41EC100BFC
:104320008DED060B9DED060B53EC102B51EC100B95
:10433000FFF7A0FC41EC180B53EC182BFFF79AFC8D
:1043400041EC190B4E480621B0EE490AF0EE690A1D
:10435000784400F0DAF853EC182B51EC100BFFF70F
:1043600089FC41EC180B4748B0EE490AF0EE690AA7
:104370000521784400F0C9F853EC192B51EC100BCF
:10438000FFF778FC41EC100B51EC180B53EC102BA1
:10439000002C0EDAFFF7C7FB9DED061B53EC112B2B
:1043A000FFF768FC9DED061B53EC112BFFF75FFC3C
:1043B00035E0FFF7B8FB9DED061B53EC112BFFF723
:1043C00059FC41EC100B3048784400EBC40090EDF0
:1043D000001B51EC100B53EC112BFFF745FC9DED2E
:1043E000061B53EC112BFFF73FFC41EC110B274848
:1043F000784400EBC40090ED000B51EC110B53EC32
:10440000102BFFF734FC41EC100B002DA2BFBDECCC
:10441000068B02B070BD51EC100B81F0004141ECF5
:10442000100BFFE600000000000010440000F07FC9
:10443000182D4454FB21F93F182D4454FB21F9BF9A
:104440000000DC3F0000203E0000F33F00000000C1
:10445000000000000000F03F0000E63F0000000008
:104460000000000000000040008003400000000049
:10447000000000000000F83F000000000000F0BF56
:104480001C1D0000D21C00005C1C0000141C00005D
:1044900000B52DED048BB0EE408AF0EE608A83B05B
:1044A00051EC180BFFF7C7FD41EC190B19EE100A80
:1044B00019EE901A8DED009B002818BF01200843CB
:1044C00020F00040C0F17F6000F1E040C00F14D048
:1044D00018EE101A18EE900A8DED008B002918BF07
:1044E0000121084320F00040C0F17F6000F1E0406E
:1044F000C00F04BF012000F0A7F8B0EE490A03B0D6
:10450000F0EE690ABDEC048B00BD70B504462DEDDC
:10451000028B4D1E00EBC500B0EE408AF0EE608AC3
:1045200090ED000B35F0060017D053EC182B51EC32
:10453000100BFFF79FFB41EC100B6D1E04EBC50049
:1045400090ED001B51EC100B53EC112BFFF7EBFA25
:1045500041EC100B35F00600E7D1022D36D0042DCA
:104560001CD0062D1CBFBDEC028B70BD53EC182B6C
:1045700051EC100BFFF77EFB94ED0A1B53EC112B53
:10458000FFF7D1FA53EC182BFFF774FB94ED080BEF
:1045900053EC102BFFF7C7FA41EC100B53EC182B20
:1045A00051EC100BFFF766FB94ED060B53EC102B50
:1045B000FFF7B9FA53EC182BFFF75CFB94ED041BE3
:1045C00053EC112BFFF7AFFA41EC100B53EC182B07
:1045D00051EC100BFFF74EFB94ED020B53EC102B3C
:1045E000FFF7A1FA53EC182BFFF744FB94ED000BF7
:1045F00053EC102BFFF797FABDEC028B41EC100B3C
:1046000070BD0000000000009FED050B10B553ECDD
:10461000102B51EC100BFFF72DFB41EC100B10BDD4
:10462000000000000000001002E008C8121F08C1CE
:10463000002AFAD170477047002001E001C1121F23
:10464000002AFBD170470000014908607047000054
:104650008C0000202DE9FF5FDDE90220010DDDF86F
:1046600038B0024310D10F9801244CA2012808D081
:10467000002100980F9BC0E90021C0E90243BDE87A
:10468000FF9F6FEA0B01F4E7A1F2FF3144F61050EF
:1046900041430D140F9801280ED0A5EB0B00401CD0
:1046A0004FF000043E4EDFF8FC90B0F1000AA04647
:1046B00005DACAF1000717E0CBF10000F0E7074682
:1046C00012E0F80707D02246334640464946FFF736
:1046D000D1FA804689462246334610461946FFF7EE
:1046E000C9FA04460E467F10002FEAD1DDE9020127
:1046F000BAF1000F42464B4602DAFFF7BBFA01E07F
:10470000FFF72AFB04460E460022274BFFF7B8FBB3
:1047100003D84FF0FF30014607E00022234B20462C
:104720003146FFF700FAFFF7D7FC102409E0002C10
:104730000ADB0A220023FFF7CDFB019B30321A551A
:10474000641E50EA0102F2D1641C019AC4F1110303
:1047500014440F9A012A09D00122084301D15B4574
:104760000FDD4FF0000205F101050DE0084303D114
:10477000A3EB0B056D1E09E000204FF0110B0F900D
:1047800088E701DA00226D1E002A83D000980F9975
:10479000C0E90231C0E9004571E7000030000000C7
:1047A000000024400000F03F0000F0430000E03F24
:1047B00010B5002A06DA22F00042D21D22F00703CB
:1047C000102203E0D21C22F003030C2213B19C1828
:1047D0008C4201D9012010BD024401448360C0E92C
:1047E0000021C91AD018884202D810600246F9E7A1
:1047F0000020106010BD00002DE9FF4F95B09B46D2
:1048000089460646002512E2252878D10024761C28
:10481000F94A2746012105943378203B01FA03F039
:10482000104202D00443761CF6E730782A2811D0D3
:104830006FF02F033078A0F13002092A16D8059ABC
:1048400044F0020402EB820203EB42021044761CA5
:104850000590EFE759F8042B0592002A03DA50423D
:1048600044F40054059044F00204761C30782E285D
:1048700016D116F8010F44F004042A280DD06FF069
:104880002F023078A0F13003092B09D807EB8703FA
:1048900002EB4303C718761CF3E759F8047B761C38
:1048A00030786C280FD006DC4C2817D068280DD043
:1048B0006A2814D104E0742810D07A280FD10DE0B2
:1048C00044F400140AE044F4801401E044F4401479
:1048D0007278824202D1761C04F58014761C3078FE
:1048E00066280BD013DC582877D009DC002875D057
:1048F0004528F6D04628F4D047281AD19FE118E081
:10490000632835D0642879D0652812D197E17028C2
:1049100073D008DC6728F1D069286FD06E280DD0DD
:104920006F2806D1B5E073282CD0752875D078286B
:1049300074D05A46179990476D1C76E1C4F3025023
:10494000022809D003280DD0D9F8001004280DD072
:104950000D6009F1040968E1D9F80010EA17C1E90E
:104960000052F6E7D9F800100D80F2E70D70F0E77D
:1049700019F8041B8DF8001000208DF80100EA469C
:10498000012003E059F804AB4FF0FF3061074FF00E
:10499000000102D40DE008F101018846B9420FDAA6
:1049A0008045F8DB1AF808100029F4D108E008F176
:1049B000010188468142FADB1AF808100029F6D175
:1049C00005985B46A0EB080721463846179A00F089
:1049D0009EFA284400EB080507E04DE02BE10DE0CE
:1049E0001AF8010B5A4617999047B8F10108F7D207
:1049F0005B4621463846179A14E142E00A220092AB
:104A0000C4F302524FF0000A022A08D059F804CB2E
:104A1000032A4FEAEC710AD00DE029E02AE009F1FF
:104A2000070121F00702F2E802C1914609E00FFAFE
:104A30008CFC4FEAEC71042A03D14FFA8CFC4FEA4C
:104A4000EC71002907DA0A460021DCF1000C61EB69
:104A500002012D2202E0220504D52B228DF804202C
:104A6000012203E0E20701D02022F7E7904653E05D
:104A70000A2102E010220DE010214FF0000A0091FF
:104A80000BE010224FF0000A44F0040408270092C3
:104A900003E008224FF0000A0092C4F30252022AF7
:104AA00005D059F804CB0021032A08D009E009F108
:104AB000070121F00702F2E802C1914605E01FFA62
:104AC0008CFC042A01D10CF0FF0C4FF000082207E7
:104AD00022D5702827D0009B83F0100353EA0A03E5
:104AE00009D15CEA010206D030228DF804208DF84D
:104AF000050002229046009B83F0080353EA0A0354
:104B00000AD15CEA010201D1620705D530228DF895
:104B100004204FF001087F1E582809D037A00390C9
:104B20000EA8029013E040228DF804200122E1E754
:104B300037A0F4E753466046009AFFF7CBF9844666
:104B40000398825C0298A0F10100029002705CEA76
:104B50000100EFD1029806A9A1EB000000F1200AA4
:104B6000600702D524F4803400E00127574502DDB8
:104B7000A7EB0A0000E0002000EB0A010090059876
:104B80004144A0EB01000590E00306D45B462146BA
:104B9000179A059800F0BBF90544002706E001A824
:104BA0005A46C05D179990476D1C7F1C4745F6DB40
:104BB000E0030CD55B462146179A059800F0A7F94B
:104BC000054404E030205A46179990476D1C00991F
:104BD000481E00900029F5DC08E0029802995A4628
:104BE0000078491C0291179990476D1CBAF1000199
:104BF000AAF1010AF1DC6BE10928010030313233FE
:104C00003435363738396162636465660000000008
:104C100030313233343536373839414243444546F2
:104C20000000000000F060F9054406F1010630784C
:104C300000287FF4E9AD19B02846BDE8F08F62077F
:104C400000D4062709F1070222F0070CFCE8022332
:104C5000E14603F000485FEA080C02D00FF27C2C1A
:104C60000DE05FEA045C02D50FF2742C07E05FEA06
:104C7000C47C02D00FF26C2C01E0AFF2700C4FF04C
:104C8000FF3823F00043CDF850C065280CD006DC77
:104C9000452809D046281DD047283ED13EE0662849
:104CA00018D0672839D139E00021112F01DB1120FC
:104CB00000E0781CCDE9000106A90EA8FFF7CAFCA8
:104CC000DDE90F010E9A03910021009207F1010A1C
:104CD00004914EE04FF000400097CDE9011006A985
:104CE0000EA8FFF7B7FCDDE90F0203920E9B1199A6
:104CF0000022DDF80CA00093049219B907F101011C
:104D000000EB010AB7EB0A0004D4C0F1FF3007F151
:104D1000010A0490AAEB0700019046E0012F00DA97
:104D200001270021112F01DD112000E03846CDE9D7
:104D3000000106A90EA8FFF78DFCDDE90F010E9A10
:104D40000391002104910092BA4621070CD40399E3
:104D5000514500DA8A46BAF1010F05DD009AAAF141
:104D60000101515C302908D0B84202DA10F1040F79
:104D700006DA0121CDE9011017E0AAF10101E9E706
:104D8000002805DC049901440491AAEB000102E02B
:104D9000411C514500DD8A460499A0EB010000F159
:104DA000010001904FF000400290200704D40198C8
:104DB000504501DBCDF8048000208DF84F000298AB
:104DC0000DF14F07B0F1004F25D02B200E90029827
:104DD0004FF0020800280CDA404202902D200E907D
:104DE00007E00A210298FFF75FF83031029007F8D8
:104DF000011DB8F10001A8F10108F2DC02980028B9
:104E0000EFD1791E0E980870307800F0200040F045
:104E1000450007F8020D12A8A0EB070000F10708F3
:104E20001498007800B1012000EB0A01019801EB11
:104E3000E07105984144A0EB0100A0F1010005904C
:104E4000E00306D45B462146179A059800F05FF808
:104E500005441498007820B15A461799904705F1F7
:104E60000105E00323D55B462146179A059800F01B
:104E70004EF805441BE00498002807DBDDE9030138
:104E8000884203DD0098405C179901E017993020B3
:104E90005A46904704986D1C401C04900198401E8F
:104EA000019004D12E205A46179990476D1CBAF1F3
:104EB0000001AAF1010ADEDC05E017F8010B5A46F1
:104EC000179990476D1CB8F10001A8F10108F4DCB6
:104ED0005B462146179A0598A4E600002D000000C5
:104EE0002B000000200000002DE9F04104460025C1
:104EF0001E461746880405D406E039462020B047F0
:104F000005F10105641EF8D52846BDE8F0812DE9BC
:104F1000F041044600251E469046C80301D53027BF
:104F200000E02027880405D506E041463846B04712
:104F300005F10105641EF8D52846BDE8F0814A68F0
:104F4000002A06D00A68531C0B6010704868401E87
:104F50004860704708480068C0010BD507480068E2
:104F6000C00707D0054880380068002802DA0449E5
:104F70000120087070470000FCED00E0800E00E0AA
:104F8000820000204FF06042D36F002BFCD0C36A38
:104F9000D367D36F002BFCD0C07840EA0120A2F881
:104FA0007C0070474FF06041CA6F002AFCD081F846
:104FB0007C00704741EC100B82B010EE900A8DED32
:104FC000000B20F0004001909DED000B02B051EC71
:104FD000100B704770B504000D4603D012B920784D
:104FE000012801D0802070BD204600F07FFA28B152
:104FF0002946204600F02CF8002070BD812070BDAD
:1050000010B504468089002821D0608904EB800017
:10501000006908606078022805D10021204600F070
:10502000B9FB00F0A7FB04F10C0000BFD0E85F1F44
:10503000491EC0E8521F002AF8D16089401C80B286
:105040006081E189884201D100206081042010BD87
:1050500010B500F09FFBBDE8104000F08BBB0000D6
:10506000EFF3058109B182207047DFF808C000DF47
:1050700070470000A15C0008EFF305820AB18220AE
:105080007047EFF31482144B12F0030206D0012A8A
:105090001BD0022A11D0032A19D113E0EFF30882A2
:1050A00082F309881A78D2070AD0022282F3148880
:1050B000BFF34F8FBFF36F8F09E01A78D20706D185
:1050C0000322F3E71A78D20701D0FF207047DFF8F8
:1050D0000CC000DF704700007C5F0008B55C000872
:1050E0002DE90E40EFF30582B2B102004FF08000CF
:1050F00000D021B10090DDE9011203B000BD1178AC
:105100000129F7D101A91046FFF77AFF042801D041
:105110000020EFE71020EDE7DFF804C000DFECE748
:10512000AD5D0008EFF305830BB182207047DFF817
:1051300008C000DF70470000E95D0008DFF80CC020
:1051400000DFDFF80CC000DFFEE70000AD5E000806
:10515000C95E0008DFF804C000DF7047015F000887
:10516000094C4FF0FF3529462068FFF7B9FF02468A
:105170000846102AF7D1FFF7EDFF0028F3D00246CA
:1051800008469047EFE70000200000204FEA0001AA
:1051900051E8000F28B1036841E80032002AF7D136
:1051A0007047BFF32F8F704710B568B161B10B31F5
:1051B00021F00302016844680B1A1B1B934205D2BD
:1051C000084609680029F5D1002010BD3CB121181E
:1051D0000368C1E90032016001F1080010BD4260BE
:1051E000083010BD70B50C46002812D04FF6FF7184
:1051F000084D884204D22A680146104600F0F6FAAB
:1052000028684470044800F0F7F8BDE8704000F0EA
:10521000AFBB70BD74000020C00000200F4810B567
:105220000D4942680E480B680088934204D00A601A
:10523000CB88421E1A448A808A8882420AD1002082
:105240000860064800F0D8F80146BDE81040034861
:1052500000F0FABA10BD000084000020C000002059
:105260008000002070B5194DE86800282CD0A88A6D
:10527000401EA882002621E0A06838B16168416024
:10528000606810B1A16881606660A6600F48214621
:10529000183800F0D9FAA08AA8826078042804D1CE
:1052A0000B49E08A09880844A08201206070E06808
:1052B000E860E06808B10561E6602661A88A002818
:1052C00002D1EC68002CD7D170BD0000D8000020BE
:1052D0008000002070B504000FD00D4DA17801268C
:1052E0002868827891420CD900F0CAFA2868467082
:1052F0002046BDE8704000F03BBB064800F07CF85B
:10530000F7E766702146BDE87040024800F09CBA9D
:1053100074000020C00000200321FFF763BF0000DD
:1053200010B50446008B084320836278618B062AFF
:1053300018D0052A19D1084217D001EA0002628369
:1053400088432083204600F0BBFA01206070628B06
:105350000821204600F0ACFA2146BDE81040034881
:1053600000F072BA31EA0002EAD010BDC00000209D
:1053700003460E4810B504688C46208B42B133EAD0
:10538000000101D0062009E098432083022010BDCF
:1053900010EA030201D06283F6E70520C1B26383FD
:1053A0006046FFF71FFF012010BD000074000020C1
:1053B000814202D342688A4201D80120704750E8F6
:1053C000002F0A6040E80012002AF8D10020704740
:1053D00068B161B10839002202E00246006830B1CC
:1053E0008842FAD12AB1006810600020704701207D
:1053F000704700214160F8E70146406842684A6012
:105400000B780022022B05D0012B03D0032B01D0F7
:105410004260704743680BB1996042608260704798
:10542000810700D00020704770B504460020154663
:10543000207001226270A1706060A060E060206155
:10544000A082E0822083608384F82000608C18B9F9
:105450000448FFF79BFEA06229462046BDE8704045
:1054600000F01CB86001001008B1082901D2012029
:1054700070470144091F002201600A604260104623
:105480007047000003480021016003490968C1809A
:105490007047000084000020745F000810B5428C43
:1054A000920803D10F4A1268C2F38D02836A03EB9C
:1054B0008202530700D5121F403A4FF08073C2E9B1
:1054C0000E1300234FEA030442F823405B1C0E2B0B
:1054D000FAD3C36913624262C162806A0249016001
:1054E00010BD0000705F0008A52E5AE2C1898089B6
:1054F000081A7047012202700022427082704260D6
:1055000002814281103982818908C181704700007F
:105510002DE9F0410446407800270E464FF001087F
:10552000012855D004F10C0502282BD0032818D0EF
:10553000A089E189884262D2208904EB800006615B
:10554000D5E85F0F401CC5E8510F0029F8D120892C
:10555000401C80B22081E189884200D12781BDE8CA
:10556000F0810846FFF712FE0600F8D02046FFF74C
:1055700043FF0546606800B967703146284600F071
:1055800091F931E02046FFF737FF0646606800B921
:1055900067700021304600F085F92189F06904EB3D
:1055A00081010861D5E85F0F401CC5E8510F002953
:1055B000F8D12089401C80B22081E189884200D145
:1055C000278186F80180304600F07AF9314611E0F3
:1055D0002046FFF711FF0546606800B96770324644
:1055E0001021284600F064F985F80180284600F073
:1055F00067F92946BDE8F041034800F025B9BDE848
:10560000F0410320FAF7A2BFC000002070B50446A5
:10561000808915460026C8B3608904EB80000069C4
:1056200008606089401C80B26081E189884200D1B5
:105630006681607802280AD014F10C04D4E85F0F68
:10564000401EC4E8510F0029F8D1002070BD20464B
:10565000FFF7D2FE0546606800B966700021284653
:1056600000F020F92189E86904EB810108612089B3
:10567000401C80B22081E189884200D126812846E1
:1056800000F01EF92846FFF725FEDEE7FFE73DB1F3
:105690000A48626801682AB1204600F0D5F807E0A0
:1056A000012070BD61600068C0E901640120607084
:1056B00008212846FFF796FDF2E70000740000205D
:1056C000411C13D00B4A4FF6FE7190420CD800EBF0
:1056D0004002C2EBC0120848036803EBC202521E2C
:1056E000B2FBF3F0884200D9084670474FF6FF70CE
:1056F0007047000000093D00805F000870B51A483F
:1057000001210068417000F0BBF8184D6C7816E07C
:1057100005EBC40148680278E2B1012A1FD000F00D
:10572000FBF8E878641C844200D100240F48801CF8
:10573000D0E84F1F491EC0E8421F002AF8D1A878C0
:105740000028E5D16C700A48FFF756FEBDE87040AE
:1057500000F00EB9896889B2FFF7E2FDE1E78968D8
:10576000FFF7D6FEDDE7000074000020901A00105D
:10577000C00000200548017811B101214170704737
:1057800003494FF080500860704700007C00002003
:1057900004ED00E0F0B4144B9C1CDD784FEA030CE0
:1057A000D4E84F2FAA4202D1BFF32F8F0EE0521C34
:1057B000C4E8462F002EF3D1DCE84F2F541CAC4236
:1057C00000D10024CCE8464F002EF5D1DC7894427D
:1057D00005D903EBC202C2E90101F0BC7047F0BC7D
:1057E0000220FAF7B3BE0000901A0010154A10B557
:1057F000D368FBB113469B8A09E000BFD2F80CC006
:10580000BCF1000F16D0BCF81440624623448B4212
:10581000F4D3D468C460D0600261D0F80CC0BCF18D
:10582000000F01D0CCF81000591A8182908A401ADA
:10583000908210BD0024C460D060C91A02619182B8
:10584000848210BDD800002010B502780023022AFF
:1058500003D0012A01D0032A00D1012391F802C00C
:1058600000E01046426812B194786445F9D24A606B
:1058700041601BB102B19160886010BD0020FBE760
:1058800003494A6842600022826048607047000015
:10589000C000002090F82010406A09B160307047C5
:1058A0002030704710B50C46FFF7F4FF046010BDC0
:1058B00070B50C461546FFF7EDFFC0E9004570BD19
:1058C00010B5016900290ED0C268CA60C368002201
:1058D0003BB18B8A848A23448B82C3681961C2607E
:1058E00000E08A82026110BD816839B142684A6075
:1058F0004168002901D0806888607047054906E04A
:105900004A68824202D140684860704711460029C7
:10591000F6D17047C000002010B5416881B1FFF793
:105920006BFD0446FFF7CCFF012060700146204666
:10593000FFF7B8FF2146BDE810400348FFF784BFDA
:105940004188491C418010BDC00000200648006805
:10595000D0E90910814203D300680449884202D08B
:105960000120FAF7F3BD704774000020A52E5AE21B
:105970000749022248604270064A1278002A05D080
:1059800006C98A4202D0C078FFF70CBB70470000FE
:1059900074000020820000202DE9F04104460D46ED
:1059A0009046FFF7D7FA002006463849384B02E008
:1059B00041F82060401C1A889042F9D335483022C3
:1059C00001883548FEF7F4FE3448006880B240F0A4
:1059D0000042334801683348FEF7EAFE32480822A5
:1059E000018832480068FEF7E3FE314FFF20314A5C
:1059F000F8707E8400213846FFF716FD2E480421FA
:105A0000017046602D480170C66006618682786A22
:105A10002030FAF7C7FB2A482B490760022078702C
:105A20002848067046700978C170284801684FF010
:105A3000E020416186610721016125480168254A0E
:105A4000114301600068224900F07F40C0431439CF
:105A5000B0FA80F00968C0F10800C1F30221814268
:105A600000DB481C1A49091F0B686FF080728240E6
:105A700063F317020A60FFF705FD424629462046F8
:105A8000BDE8F041002300F06DB80000141B0010C9
:105A90006C5F0008885F000800000010705F00085D
:105AA0008C5F000860010010B05F00081800002043
:105AB0009000002049050008C0000020D800002008
:105AC00074000020901A0010945F0008785F0008AE
:105AD00020ED00E00000FFFF0B4810B50068012139
